{
  "_format": "hh-sol-artifact-1",
  "contractName": "SnowfallEthPool",
  "sourceName": "contracts/SnowfallEthPool.sol",
  "abi": [
    {
      "inputs": [
        {
          "internalType": "address",
          "name": "_snowToken",
          "type": "address"
        },
        {
          "internalType": "address",
          "name": "_lpToken",
          "type": "address"
        }
      ],
      "stateMutability": "nonpayable",
      "type": "constructor"
    },
    {
      "inputs": [],
      "name": "CorePool__AlreadyInitialized",
      "type": "error"
    },
    {
      "inputs": [],
      "name": "CorePool__CannotUpdateRewardRatioYet",
      "type": "error"
    },
    {
      "inputs": [],
      "name": "CorePool__InvalidLockPeriod",
      "type": "error"
    },
    {
      "inputs": [],
      "name": "CorePool__InvalidStakerAddress",
      "type": "error"
    },
    {
      "inputs": [],
      "name": "CorePool__NotUnlockedYet",
      "type": "error"
    },
    {
      "inputs": [],
      "name": "CorePool__ValueCannotBeZero",
      "type": "error"
    },
    {
      "inputs": [],
      "name": "SnowfallEthPool__CannotCallThisFunction",
      "type": "error"
    },
    {
      "anonymous": false,
      "inputs": [
        {
          "indexed": true,
          "internalType": "address",
          "name": "account",
          "type": "address"
        },
        {
          "indexed": false,
          "internalType": "uint256",
          "name": "value",
          "type": "uint256"
        }
      ],
      "name": "ClaimYieldRewards",
      "type": "event"
    },
    {
      "anonymous": false,
      "inputs": [
        {
          "indexed": true,
          "internalType": "address",
          "name": "previousOwner",
          "type": "address"
        },
        {
          "indexed": true,
          "internalType": "address",
          "name": "newOwner",
          "type": "address"
        }
      ],
      "name": "OwnershipTransferred",
      "type": "event"
    },
    {
      "anonymous": false,
      "inputs": [
        {
          "indexed": true,
          "internalType": "address",
          "name": "account",
          "type": "address"
        },
        {
          "indexed": false,
          "internalType": "uint256",
          "name": "stakeId",
          "type": "uint256"
        },
        {
          "indexed": false,
          "internalType": "uint256",
          "name": "value",
          "type": "uint256"
        },
        {
          "indexed": false,
          "internalType": "uint256",
          "name": "stakeTime",
          "type": "uint256"
        },
        {
          "indexed": false,
          "internalType": "uint64",
          "name": "lockedUntil",
          "type": "uint64"
        },
        {
          "indexed": false,
          "internalType": "uint256",
          "name": "stakeWeight",
          "type": "uint256"
        }
      ],
      "name": "Staked",
      "type": "event"
    },
    {
      "anonymous": false,
      "inputs": [
        {
          "indexed": true,
          "internalType": "address",
          "name": "by",
          "type": "address"
        },
        {
          "indexed": false,
          "internalType": "uint256",
          "name": "yieldRewardsPerShare",
          "type": "uint256"
        },
        {
          "indexed": false,
          "internalType": "uint64",
          "name": "lastYieldDistribution",
          "type": "uint64"
        }
      ],
      "name": "Synced",
      "type": "event"
    },
    {
      "anonymous": false,
      "inputs": [
        {
          "indexed": true,
          "internalType": "address",
          "name": "account",
          "type": "address"
        },
        {
          "indexed": false,
          "internalType": "uint256",
          "name": "stakeId",
          "type": "uint256"
        }
      ],
      "name": "Unstake",
      "type": "event"
    },
    {
      "anonymous": false,
      "inputs": [
        {
          "indexed": true,
          "internalType": "address",
          "name": "by",
          "type": "address"
        },
        {
          "indexed": false,
          "internalType": "uint256",
          "name": "newRewardPerSecond",
          "type": "uint256"
        }
      ],
      "name": "UpdateRewardPerSecond",
      "type": "event"
    },
    {
      "anonymous": false,
      "inputs": [
        {
          "indexed": true,
          "internalType": "address",
          "name": "account",
          "type": "address"
        },
        {
          "indexed": false,
          "internalType": "uint256",
          "name": "yieldValue",
          "type": "uint256"
        }
      ],
      "name": "UpdateRewards",
      "type": "event"
    },
    {
      "inputs": [],
      "name": "claimYieldRewards",
      "outputs": [],
      "stateMutability": "nonpayable",
      "type": "function"
    },
    {
      "inputs": [],
      "name": "endTime",
      "outputs": [
        {
          "internalType": "uint32",
          "name": "",
          "type": "uint32"
        }
      ],
      "stateMutability": "view",
      "type": "function"
    },
    {
      "inputs": [
        {
          "internalType": "address",
          "name": "_singlePoolAddress",
          "type": "address"
        },
        {
          "internalType": "address",
          "name": "_lpPoolAddress",
          "type": "address"
        }
      ],
      "name": "initialize",
      "outputs": [],
      "stateMutability": "nonpayable",
      "type": "function"
    },
    {
      "inputs": [],
      "name": "owner",
      "outputs": [
        {
          "internalType": "address",
          "name": "",
          "type": "address"
        }
      ],
      "stateMutability": "view",
      "type": "function"
    },
    {
      "inputs": [
        {
          "internalType": "address",
          "name": "_staker",
          "type": "address"
        }
      ],
      "name": "pendingRewards",
      "outputs": [
        {
          "internalType": "uint256",
          "name": "",
          "type": "uint256"
        }
      ],
      "stateMutability": "view",
      "type": "function"
    },
    {
      "inputs": [],
      "name": "poolToken",
      "outputs": [
        {
          "internalType": "address",
          "name": "",
          "type": "address"
        }
      ],
      "stateMutability": "view",
      "type": "function"
    },
    {
      "inputs": [],
      "name": "renounceOwnership",
      "outputs": [],
      "stateMutability": "nonpayable",
      "type": "function"
    },
    {
      "inputs": [],
      "name": "rewardPerSecond",
      "outputs": [
        {
          "internalType": "uint64",
          "name": "",
          "type": "uint64"
        }
      ],
      "stateMutability": "view",
      "type": "function"
    },
    {
      "inputs": [
        {
          "internalType": "uint96",
          "name": "_value",
          "type": "uint96"
        },
        {
          "internalType": "uint64",
          "name": "_lockDuration",
          "type": "uint64"
        }
      ],
      "name": "stake",
      "outputs": [],
      "stateMutability": "nonpayable",
      "type": "function"
    },
    {
      "inputs": [
        {
          "internalType": "address",
          "name": "_staker",
          "type": "address"
        },
        {
          "internalType": "uint256",
          "name": "_value",
          "type": "uint256"
        }
      ],
      "name": "stakeFromLPPool",
      "outputs": [],
      "stateMutability": "pure",
      "type": "function"
    },
    {
      "inputs": [],
      "name": "totalPoolWeightedShares",
      "outputs": [
        {
          "internalType": "uint256",
          "name": "",
          "type": "uint256"
        }
      ],
      "stateMutability": "view",
      "type": "function"
    },
    {
      "inputs": [],
      "name": "totalTokensInPool",
      "outputs": [
        {
          "internalType": "uint96",
          "name": "",
          "type": "uint96"
        }
      ],
      "stateMutability": "view",
      "type": "function"
    },
    {
      "inputs": [
        {
          "internalType": "address",
          "name": "newOwner",
          "type": "address"
        }
      ],
      "name": "transferOwnership",
      "outputs": [],
      "stateMutability": "nonpayable",
      "type": "function"
    },
    {
      "inputs": [
        {
          "internalType": "uint256",
          "name": "_stakeId",
          "type": "uint256"
        }
      ],
      "name": "unstake",
      "outputs": [],
      "stateMutability": "nonpayable",
      "type": "function"
    },
    {
      "inputs": [],
      "name": "updateRewardPerSecond",
      "outputs": [],
      "stateMutability": "nonpayable",
      "type": "function"
    },
    {
      "inputs": [
        {
          "internalType": "address",
          "name": "",
          "type": "address"
        }
      ],
      "name": "users",
      "outputs": [
        {
          "internalType": "uint96",
          "name": "pendingYield",
          "type": "uint96"
        },
        {
          "internalType": "uint160",
          "name": "totalWeightedShares",
          "type": "uint160"
        },
        {
          "internalType": "uint256",
          "name": "yieldRewardsPerSharePaid",
          "type": "uint256"
        }
      ],
      "stateMutability": "view",
      "type": "function"
    }
  ],
  "bytecode": "0x60806040523480156200001157600080fd5b506040516200277a3803806200277a8339818101604052810190620000379190620002a4565b620000576200004b6200016e60201b60201c565b6200017660201b60201c565b81600160006101000a81548173ffffffffffffffffffffffffffffffffffffffff021916908373ffffffffffffffffffffffffffffffffffffffff16021790555080600260006101000a81548173ffffffffffffffffffffffffffffffffffffffff021916908373ffffffffffffffffffffffffffffffffffffffff16021790555080600360006101000a81548173ffffffffffffffffffffffffffffffffffffffff021916908373ffffffffffffffffffffffffffffffffffffffff160217905550600a6009668c542371092ffc62000132919062000324565b6200013e91906200039e565b600260186101000a81548167ffffffffffffffff021916908367ffffffffffffffff1602179055505050620003d6565b600033905090565b60008060009054906101000a900473ffffffffffffffffffffffffffffffffffffffff169050816000806101000a81548173ffffffffffffffffffffffffffffffffffffffff021916908373ffffffffffffffffffffffffffffffffffffffff1602179055508173ffffffffffffffffffffffffffffffffffffffff168173ffffffffffffffffffffffffffffffffffffffff167f8be0079c531659141344cd1fd0a4f28419497f9722a3daafe3b4186f6b6457e060405160405180910390a35050565b600080fd5b600073ffffffffffffffffffffffffffffffffffffffff82169050919050565b60006200026c826200023f565b9050919050565b6200027e816200025f565b81146200028a57600080fd5b50565b6000815190506200029e8162000273565b92915050565b60008060408385031215620002be57620002bd6200023a565b5b6000620002ce858286016200028d565b9250506020620002e1858286016200028d565b9150509250929050565b6000819050919050565b7f4e487b7100000000000000000000000000000000000000000000000000000000600052601160045260246000fd5b60006200033182620002eb565b91506200033e83620002eb565b92508282026200034e81620002eb565b91508282048414831517620003685762000367620002f5565b5b5092915050565b7f4e487b7100000000000000000000000000000000000000000000000000000000600052601260045260246000fd5b6000620003ab82620002eb565b9150620003b883620002eb565b925082620003cb57620003ca6200036f565b5b828204905092915050565b61239480620003e66000396000f3fe608060405234801561001057600080fd5b50600436106101005760003560e01c80638f10369a11610097578063db0f53f911610066578063db0f53f914610279578063e24bb2e514610283578063ed36b5b21461029f578063f2fde38b146102a957610100565b80638f10369a146101ed578063a0e99fcb1461020b578063a87430ba14610229578063cbdf382c1461025b57610100565b8063485cc955116100d3578063485cc9551461018b5780636ffbdae4146101a7578063715018a6146101c55780638da5cb5b146101cf57610100565b806311961d58146101055780632e17de78146101215780633197cbb61461013d57806331d7a2621461015b575b600080fd5b61011f600480360381019061011a9190611a27565b6102c5565b005b61013b60048036038101906101369190611a67565b6102f7565b005b61014561072e565b6040516101529190611ab3565b60405180910390f35b61017560048036038101906101709190611ace565b610744565b6040516101829190611b0a565b60405180910390f35b6101a560048036038101906101a09190611b25565b61095b565b005b6101af610abd565b6040516101bc9190611b0a565b60405180910390f35b6101cd610ac3565b005b6101d7610ad7565b6040516101e49190611b74565b60405180910390f35b6101f5610b00565b6040516102029190611bb2565b60405180910390f35b610213610b1a565b6040516102209190611bf4565b60405180910390f35b610243600480360381019061023e9190611ace565b610b38565b60405161025293929190611c1e565b60405180910390f35b610263610b9a565b6040516102709190611b74565b60405180910390f35b610281610bc0565b005b61029d60048036038101906102989190611cad565b610d60565b005b6102a76111e5565b005b6102c360048036038101906102be9190611ace565b611301565b005b6040517f289d896400000000000000000000000000000000000000000000000000000000815260040160405180910390fd5b6000600860003373ffffffffffffffffffffffffffffffffffffffff1673ffffffffffffffffffffffffffffffffffffffff1681526020019081526020016000209050600081600201838154811061035257610351611ced565b5b9060005260206000200190508060000160149054906101000a900467ffffffffffffffff1667ffffffffffffffff164210156103ba576040517f46011bae00000000000000000000000000000000000000000000000000000000815260040160405180910390fd5b6000808260000160009054906101000a90046bffffffffffffffffffffffff1683600001601c9054906101000a900460ff16915091506103f933611384565b60006104048461153b565b905084600201868154811061041c5761041b611ced565b5b90600052602060002001600080820160006101000a8154906bffffffffffffffffffffffff021916905560008201600c6101000a81549067ffffffffffffffff02191690556000820160146101000a81549067ffffffffffffffff021916905560008201601c6101000a81549060ff021916905550508085600001600c9054906101000a900473ffffffffffffffffffffffffffffffffffffffff1673ffffffffffffffffffffffffffffffffffffffff166104d89190611d4b565b85600001600c6101000a81548173ffffffffffffffffffffffffffffffffffffffff021916908373ffffffffffffffffffffffffffffffffffffffff160217905550806005600082825461052c9190611d4b565b9250508190555082600160148282829054906101000a90046bffffffffffffffffffffffff1661055c9190611d7f565b92506101000a8154816bffffffffffffffffffffffff02191690836bffffffffffffffffffffffff160217905550811561063657600160009054906101000a900473ffffffffffffffffffffffffffffffffffffffff1673ffffffffffffffffffffffffffffffffffffffff1663a9059cbb33856040518363ffffffff1660e01b81526004016105ed929190611dfa565b6020604051808303816000875af115801561060c573d6000803e3d6000fd5b505050506040513d601f19601f820116820180604052508101906106309190611e5b565b506106d8565b600360009054906101000a900473ffffffffffffffffffffffffffffffffffffffff1673ffffffffffffffffffffffffffffffffffffffff1663a9059cbb33856040518363ffffffff1660e01b8152600401610693929190611dfa565b6020604051808303816000875af11580156106b2573d6000803e3d6000fd5b505050506040513d601f19601f820116820180604052508101906106d69190611e5b565b505b3373ffffffffffffffffffffffffffffffffffffffff167f85082129d87b2fe11527cb1b3b7a520aeb5aa6913f88a3d8757fe40d1db02fdd8760405161071e9190611b0a565b60405180910390a2505050505050565b600360189054906101000a900463ffffffff1681565b60008073ffffffffffffffffffffffffffffffffffffffff168273ffffffffffffffffffffffffffffffffffffffff16036107ab576040517f6803935b00000000000000000000000000000000000000000000000000000000815260040160405180910390fd5b6000600554036107be5760009050610956565b6000600860008473ffffffffffffffffffffffffffffffffffffffff1673ffffffffffffffffffffffffffffffffffffffff16815260200190815260200160002090506000600360189054906101000a900463ffffffff1663ffffffff16421161084b57600260149054906101000a900463ffffffff1663ffffffff16426108469190611d4b565b610882565b600260149054906101000a900463ffffffff16600360189054906101000a900463ffffffff1661087b9190611e88565b63ffffffff165b90506000600260189054906101000a900467ffffffffffffffff1667ffffffffffffffff16826108b29190611ec0565b905060006004546108c5836005546115ea565b6108cf9190611f02565b90508360000160009054906101000a90046bffffffffffffffffffffffff166bffffffffffffffffffffffff1661094585600001600c9054906101000a900473ffffffffffffffffffffffffffffffffffffffff1673ffffffffffffffffffffffffffffffffffffffff16838760010154611610565b61094f9190611f02565b9450505050505b919050565b610963611642565b6003601c9054906101000a900460ff16156109aa576040517f1a98fc8100000000000000000000000000000000000000000000000000000000815260040160405180910390fd5b81600660006101000a81548173ffffffffffffffffffffffffffffffffffffffff021916908373ffffffffffffffffffffffffffffffffffffffff16021790555080600760006101000a81548173ffffffffffffffffffffffffffffffffffffffff021916908373ffffffffffffffffffffffffffffffffffffffff160217905550630968a48042610a3c9190611f02565b600360186101000a81548163ffffffff021916908363ffffffff16021790555042600360146101000a81548163ffffffff021916908363ffffffff16021790555042600260146101000a81548163ffffffff021916908363ffffffff16021790555060016003601c6101000a81548160ff0219169083151502179055505050565b60055481565b610acb611642565b610ad560006116c0565b565b60008060009054906101000a900473ffffffffffffffffffffffffffffffffffffffff16905090565b600260189054906101000a900467ffffffffffffffff1681565b600160149054906101000a90046bffffffffffffffffffffffff1681565b60086020528060005260406000206000915090508060000160009054906101000a90046bffffffffffffffffffffffff169080600001600c9054906101000a900473ffffffffffffffffffffffffffffffffffffffff16908060010154905083565b600360009054906101000a900473ffffffffffffffffffffffffffffffffffffffff1681565b6000600860003373ffffffffffffffffffffffffffffffffffffffff1673ffffffffffffffffffffffffffffffffffffffff1681526020019081526020016000209050610c0c33611384565b60008160000160009054906101000a90046bffffffffffffffffffffffff1690506000816bffffffffffffffffffffffff1603610c4a575050610d5e565b60008260000160006101000a8154816bffffffffffffffffffffffff02191690836bffffffffffffffffffffffff160217905550600660009054906101000a900473ffffffffffffffffffffffffffffffffffffffff1673ffffffffffffffffffffffffffffffffffffffff166311961d5833836040518363ffffffff1660e01b8152600401610cdb929190611dfa565b600060405180830381600087803b158015610cf557600080fd5b505af1158015610d09573d6000803e3d6000fd5b505050503373ffffffffffffffffffffffffffffffffffffffff167f6257531a949dcb8fa7034596782db5a55116ef92d67d5814eabb3426a3a016a982604051610d539190611f36565b60405180910390a250505b565b6000826bffffffffffffffffffffffff1603610da8576040517fe19a65fe00000000000000000000000000000000000000000000000000000000815260040160405180910390fd5b60018167ffffffffffffffff161080610dce5750630968a4808167ffffffffffffffff16115b15610e05576040517fac56ac5400000000000000000000000000000000000000000000000000000000815260040160405180910390fd5b6000600860003373ffffffffffffffffffffffffffffffffffffffff1673ffffffffffffffffffffffffffffffffffffffff1681526020019081526020016000209050610e5133611384565b60008242610e5f9190611f51565b90506000620f4240630968a480624c4b404285610e7c9190611f8d565b67ffffffffffffffff16610e909190611ec0565b610e9a9190611ff8565b610ea49190611f02565b90506000856bffffffffffffffffffffffff1682610ec29190611ec0565b905060006040518060800160405280886bffffffffffffffffffffffff1681526020014267ffffffffffffffff1681526020018567ffffffffffffffff16815260200160001515815250905084600201819080600181540180825580915050600190039060005260206000200160009091909190915060008201518160000160006101000a8154816bffffffffffffffffffffffff02191690836bffffffffffffffffffffffff160217905550602082015181600001600c6101000a81548167ffffffffffffffff021916908367ffffffffffffffff16021790555060408201518160000160146101000a81548167ffffffffffffffff021916908367ffffffffffffffff160217905550606082015181600001601c6101000a81548160ff02191690831515021790555050508185600001600c8282829054906101000a900473ffffffffffffffffffffffffffffffffffffffff166110229190612029565b92506101000a81548173ffffffffffffffffffffffffffffffffffffffff021916908373ffffffffffffffffffffffffffffffffffffffff16021790555081600560008282546110729190611f02565b9250508190555086600160148282829054906101000a90046bffffffffffffffffffffffff166110a29190612071565b92506101000a8154816bffffffffffffffffffffffff02191690836bffffffffffffffffffffffff160217905550600360009054906101000a900473ffffffffffffffffffffffffffffffffffffffff1673ffffffffffffffffffffffffffffffffffffffff166323b872dd33308a6040518463ffffffff1660e01b815260040161112f939291906120b1565b6020604051808303816000875af115801561114e573d6000803e3d6000fd5b505050506040513d601f19601f820116820180604052508101906111729190611e5b565b503373ffffffffffffffffffffffffffffffffffffffff167f7396fefe2cd6af2ed7e2f5e3115968438aac582eb6e5143e4fa009f190ec5857600187600201805490506111bf9190611d4b565b894288886040516111d49594939291906120e8565b60405180910390a250505050505050565b6111ed611784565b611223576040517fd348c96800000000000000000000000000000000000000000000000000000000815260040160405180910390fd5b60646065600260189054906101000a900467ffffffffffffffff16611248919061213b565b6112529190612178565b600260186101000a81548167ffffffffffffffff021916908367ffffffffffffffff16021790555042600360146101000a81548163ffffffff021916908363ffffffff1602179055503373ffffffffffffffffffffffffffffffffffffffff167f6b0c79aba8ff3f5ede2d55cbbf057c3439ed153c0105945cbd9f112a0a9d0a36600260189054906101000a900467ffffffffffffffff166040516112f791906121da565b60405180910390a2565b611309611642565b600073ffffffffffffffffffffffffffffffffffffffff168173ffffffffffffffffffffffffffffffffffffffff1603611378576040517f08c379a000000000000000000000000000000000000000000000000000000000815260040161136f90612278565b60405180910390fd5b611381816116c0565b50565b600073ffffffffffffffffffffffffffffffffffffffff168173ffffffffffffffffffffffffffffffffffffffff16036113ea576040517f6803935b00000000000000000000000000000000000000000000000000000000815260040160405180910390fd5b6113f26117df565b6000600860008373ffffffffffffffffffffffffffffffffffffffff1673ffffffffffffffffffffffffffffffffffffffff1681526020019081526020016000209050600061148282600001600c9054906101000a900473ffffffffffffffffffffffffffffffffffffffff1673ffffffffffffffffffffffffffffffffffffffff166004548460010154611610565b9050808260000160008282829054906101000a90046bffffffffffffffffffffffff166114af9190612071565b92506101000a8154816bffffffffffffffffffffffff02191690836bffffffffffffffffffffffff16021790555060045482600101819055508273ffffffffffffffffffffffffffffffffffffffff167f6ecb3578d0246bd181c85826dc9504ede4ffd2973a363722efab3c3c7aef3cf68260405161152e9190611b0a565b60405180910390a2505050565b60008160000160009054906101000a90046bffffffffffffffffffffffff166bffffffffffffffffffffffff16620f4240630968a480624c4b4085600001600c9054906101000a900467ffffffffffffffff168660000160149054906101000a900467ffffffffffffffff166115b19190611f8d565b67ffffffffffffffff166115c59190611ec0565b6115cf9190611ff8565b6115d99190611f02565b6115e39190611ec0565b9050919050565b60008164e8d4a51000846115fe9190611ec0565b6116089190611ff8565b905092915050565b600064e8d4a5100082846116249190611d4b565b8561162f9190611ec0565b6116399190611ff8565b90509392505050565b61164a611986565b73ffffffffffffffffffffffffffffffffffffffff16611668610ad7565b73ffffffffffffffffffffffffffffffffffffffff16146116be576040517f08c379a00000000000000000000000000000000000000000000000000000000081526004016116b5906122e4565b60405180910390fd5b565b60008060009054906101000a900473ffffffffffffffffffffffffffffffffffffffff169050816000806101000a81548173ffffffffffffffffffffffffffffffffffffffff021916908373ffffffffffffffffffffffffffffffffffffffff1602179055508173ffffffffffffffffffffffffffffffffffffffff168173ffffffffffffffffffffffffffffffffffffffff167f8be0079c531659141344cd1fd0a4f28419497f9722a3daafe3b4186f6b6457e060405160405180910390a35050565b6000600360189054906101000a900463ffffffff1663ffffffff164211156117af57600090506117dc565b62093a80600360149054906101000a900463ffffffff1663ffffffff166117d69190611f02565b42101590505b90565b6117e7611784565b156117f5576117f46111e5565b5b6000600554036118255742600260146101000a81548163ffffffff021916908363ffffffff160217905550611984565b6000600360189054906101000a900463ffffffff1663ffffffff16421161186f57600260149054906101000a900463ffffffff1663ffffffff164261186a9190611d4b565b6118a6565b600260149054906101000a900463ffffffff16600360189054906101000a900463ffffffff1661189f9190611e88565b63ffffffff165b90506000600260189054906101000a900467ffffffffffffffff1667ffffffffffffffff16826118d69190611ec0565b90506118e4816005546115ea565b600460008282546118f59190611f02565b9250508190555042600260146101000a81548163ffffffff021916908363ffffffff1602179055503373ffffffffffffffffffffffffffffffffffffffff167f50cd981a6fc3ae42b92c6fb6313984eea358c557449fe2c659db469578ea04a6600454600260149054906101000a900463ffffffff16604051611979929190612335565b60405180910390a250505b565b600033905090565b600080fd5b600073ffffffffffffffffffffffffffffffffffffffff82169050919050565b60006119be82611993565b9050919050565b6119ce816119b3565b81146119d957600080fd5b50565b6000813590506119eb816119c5565b92915050565b6000819050919050565b611a04816119f1565b8114611a0f57600080fd5b50565b600081359050611a21816119fb565b92915050565b60008060408385031215611a3e57611a3d61198e565b5b6000611a4c858286016119dc565b9250506020611a5d85828601611a12565b9150509250929050565b600060208284031215611a7d57611a7c61198e565b5b6000611a8b84828501611a12565b91505092915050565b600063ffffffff82169050919050565b611aad81611a94565b82525050565b6000602082019050611ac86000830184611aa4565b92915050565b600060208284031215611ae457611ae361198e565b5b6000611af2848285016119dc565b91505092915050565b611b04816119f1565b82525050565b6000602082019050611b1f6000830184611afb565b92915050565b60008060408385031215611b3c57611b3b61198e565b5b6000611b4a858286016119dc565b9250506020611b5b858286016119dc565b9150509250929050565b611b6e816119b3565b82525050565b6000602082019050611b896000830184611b65565b92915050565b600067ffffffffffffffff82169050919050565b611bac81611b8f565b82525050565b6000602082019050611bc76000830184611ba3565b92915050565b60006bffffffffffffffffffffffff82169050919050565b611bee81611bcd565b82525050565b6000602082019050611c096000830184611be5565b92915050565b611c1881611993565b82525050565b6000606082019050611c336000830186611be5565b611c406020830185611c0f565b611c4d6040830184611afb565b949350505050565b611c5e81611bcd565b8114611c6957600080fd5b50565b600081359050611c7b81611c55565b92915050565b611c8a81611b8f565b8114611c9557600080fd5b50565b600081359050611ca781611c81565b92915050565b60008060408385031215611cc457611cc361198e565b5b6000611cd285828601611c6c565b9250506020611ce385828601611c98565b9150509250929050565b7f4e487b7100000000000000000000000000000000000000000000000000000000600052603260045260246000fd5b7f4e487b7100000000000000000000000000000000000000000000000000000000600052601160045260246000fd5b6000611d56826119f1565b9150611d61836119f1565b9250828203905081811115611d7957611d78611d1c565b5b92915050565b6000611d8a82611bcd565b9150611d9583611bcd565b925082820390506bffffffffffffffffffffffff811115611db957611db8611d1c565b5b92915050565b6000819050919050565b6000611de4611ddf611dda84611bcd565b611dbf565b6119f1565b9050919050565b611df481611dc9565b82525050565b6000604082019050611e0f6000830185611b65565b611e1c6020830184611deb565b9392505050565b60008115159050919050565b611e3881611e23565b8114611e4357600080fd5b50565b600081519050611e5581611e2f565b92915050565b600060208284031215611e7157611e7061198e565b5b6000611e7f84828501611e46565b91505092915050565b6000611e9382611a94565b9150611e9e83611a94565b9250828203905063ffffffff811115611eba57611eb9611d1c565b5b92915050565b6000611ecb826119f1565b9150611ed6836119f1565b9250828202611ee4816119f1565b91508282048414831517611efb57611efa611d1c565b5b5092915050565b6000611f0d826119f1565b9150611f18836119f1565b9250828201905080821115611f3057611f2f611d1c565b5b92915050565b6000602082019050611f4b6000830184611deb565b92915050565b6000611f5c82611b8f565b9150611f6783611b8f565b9250828201905067ffffffffffffffff811115611f8757611f86611d1c565b5b92915050565b6000611f9882611b8f565b9150611fa383611b8f565b9250828203905067ffffffffffffffff811115611fc357611fc2611d1c565b5b92915050565b7f4e487b7100000000000000000000000000000000000000000000000000000000600052601260045260246000fd5b6000612003826119f1565b915061200e836119f1565b92508261201e5761201d611fc9565b5b828204905092915050565b600061203482611993565b915061203f83611993565b9250828201905073ffffffffffffffffffffffffffffffffffffffff81111561206b5761206a611d1c565b5b92915050565b600061207c82611bcd565b915061208783611bcd565b925082820190506bffffffffffffffffffffffff8111156120ab576120aa611d1c565b5b92915050565b60006060820190506120c66000830186611b65565b6120d36020830185611b65565b6120e06040830184611deb565b949350505050565b600060a0820190506120fd6000830188611afb565b61210a6020830187611deb565b6121176040830186611afb565b6121246060830185611ba3565b6121316080830184611afb565b9695505050505050565b600061214682611b8f565b915061215183611b8f565b925082820261215f81611b8f565b915080821461217157612170611d1c565b5b5092915050565b600061218382611b8f565b915061218e83611b8f565b92508261219e5761219d611fc9565b5b828204905092915050565b60006121c46121bf6121ba84611b8f565b611dbf565b6119f1565b9050919050565b6121d4816121a9565b82525050565b60006020820190506121ef60008301846121cb565b92915050565b600082825260208201905092915050565b7f4f776e61626c653a206e6577206f776e657220697320746865207a65726f206160008201527f6464726573730000000000000000000000000000000000000000000000000000602082015250565b60006122626026836121f5565b915061226d82612206565b604082019050919050565b6000602082019050818103600083015261229181612255565b9050919050565b7f4f776e61626c653a2063616c6c6572206973206e6f7420746865206f776e6572600082015250565b60006122ce6020836121f5565b91506122d982612298565b602082019050919050565b600060208201905081810360008301526122fd816122c1565b9050919050565b600061231f61231a61231584611a94565b611dbf565b611b8f565b9050919050565b61232f81612304565b82525050565b600060408201905061234a6000830185611afb565b6123576020830184612326565b939250505056fea26469706673582212204378c85b8cb3b2bc5a8dad24eefbc7dd8aad845a16ed57eabb1b21ac77d749d764736f6c63430008120033",
  "linkReferences": {},
  "deployedLinkReferences": {}
}