{
  "_format": "hh-sol-artifact-1",
  "contractName": "SnowfallPool",
  "sourceName": "contracts/SnowfallPool.sol",
  "abi": [
    {
      "inputs": [
        {
          "internalType": "address",
          "name": "_snowToken",
          "type": "address"
        },
        {
          "internalType": "address",
          "name": "_lpToken",
          "type": "address"
        }
      ],
      "stateMutability": "nonpayable",
      "type": "constructor"
    },
    {
      "inputs": [],
      "name": "CorePool__AlreadyInitialized",
      "type": "error"
    },
    {
      "inputs": [],
      "name": "CorePool__CannotUpdateRewardRatioYet",
      "type": "error"
    },
    {
      "inputs": [],
      "name": "CorePool__InvalidLockPeriod",
      "type": "error"
    },
    {
      "inputs": [],
      "name": "CorePool__InvalidStakerAddress",
      "type": "error"
    },
    {
      "inputs": [],
      "name": "CorePool__NotFromLPPool",
      "type": "error"
    },
    {
      "inputs": [],
      "name": "CorePool__NotUnlockedYet",
      "type": "error"
    },
    {
      "inputs": [],
      "name": "CorePool__ValueCannotBeZero",
      "type": "error"
    },
    {
      "anonymous": false,
      "inputs": [
        {
          "indexed": true,
          "internalType": "address",
          "name": "account",
          "type": "address"
        },
        {
          "indexed": false,
          "internalType": "uint256",
          "name": "value",
          "type": "uint256"
        }
      ],
      "name": "ClaimYieldRewards",
      "type": "event"
    },
    {
      "anonymous": false,
      "inputs": [
        {
          "indexed": true,
          "internalType": "address",
          "name": "previousOwner",
          "type": "address"
        },
        {
          "indexed": true,
          "internalType": "address",
          "name": "newOwner",
          "type": "address"
        }
      ],
      "name": "OwnershipTransferred",
      "type": "event"
    },
    {
      "anonymous": false,
      "inputs": [
        {
          "indexed": true,
          "internalType": "address",
          "name": "account",
          "type": "address"
        },
        {
          "indexed": false,
          "internalType": "uint256",
          "name": "stakeId",
          "type": "uint256"
        },
        {
          "indexed": false,
          "internalType": "uint256",
          "name": "value",
          "type": "uint256"
        },
        {
          "indexed": false,
          "internalType": "uint256",
          "name": "stakeTime",
          "type": "uint256"
        },
        {
          "indexed": false,
          "internalType": "uint64",
          "name": "lockedUntil",
          "type": "uint64"
        },
        {
          "indexed": false,
          "internalType": "uint256",
          "name": "stakeWeight",
          "type": "uint256"
        }
      ],
      "name": "Staked",
      "type": "event"
    },
    {
      "anonymous": false,
      "inputs": [
        {
          "indexed": true,
          "internalType": "address",
          "name": "by",
          "type": "address"
        },
        {
          "indexed": false,
          "internalType": "uint256",
          "name": "yieldRewardsPerShare",
          "type": "uint256"
        },
        {
          "indexed": false,
          "internalType": "uint64",
          "name": "lastYieldDistribution",
          "type": "uint64"
        }
      ],
      "name": "Synced",
      "type": "event"
    },
    {
      "anonymous": false,
      "inputs": [
        {
          "indexed": true,
          "internalType": "address",
          "name": "account",
          "type": "address"
        },
        {
          "indexed": false,
          "internalType": "uint256",
          "name": "stakeId",
          "type": "uint256"
        }
      ],
      "name": "Unstake",
      "type": "event"
    },
    {
      "anonymous": false,
      "inputs": [
        {
          "indexed": true,
          "internalType": "address",
          "name": "by",
          "type": "address"
        },
        {
          "indexed": false,
          "internalType": "uint256",
          "name": "newRewardPerSecond",
          "type": "uint256"
        }
      ],
      "name": "UpdateRewardPerSecond",
      "type": "event"
    },
    {
      "anonymous": false,
      "inputs": [
        {
          "indexed": true,
          "internalType": "address",
          "name": "account",
          "type": "address"
        },
        {
          "indexed": false,
          "internalType": "uint256",
          "name": "yieldValue",
          "type": "uint256"
        }
      ],
      "name": "UpdateRewards",
      "type": "event"
    },
    {
      "inputs": [],
      "name": "claimYieldRewards",
      "outputs": [],
      "stateMutability": "nonpayable",
      "type": "function"
    },
    {
      "inputs": [],
      "name": "endTime",
      "outputs": [
        {
          "internalType": "uint32",
          "name": "",
          "type": "uint32"
        }
      ],
      "stateMutability": "view",
      "type": "function"
    },
    {
      "inputs": [
        {
          "internalType": "address",
          "name": "_singlePoolAddress",
          "type": "address"
        },
        {
          "internalType": "address",
          "name": "_lpPoolAddress",
          "type": "address"
        }
      ],
      "name": "initialize",
      "outputs": [],
      "stateMutability": "nonpayable",
      "type": "function"
    },
    {
      "inputs": [],
      "name": "owner",
      "outputs": [
        {
          "internalType": "address",
          "name": "",
          "type": "address"
        }
      ],
      "stateMutability": "view",
      "type": "function"
    },
    {
      "inputs": [
        {
          "internalType": "address",
          "name": "_staker",
          "type": "address"
        }
      ],
      "name": "pendingRewards",
      "outputs": [
        {
          "internalType": "uint256",
          "name": "",
          "type": "uint256"
        }
      ],
      "stateMutability": "view",
      "type": "function"
    },
    {
      "inputs": [],
      "name": "poolToken",
      "outputs": [
        {
          "internalType": "address",
          "name": "",
          "type": "address"
        }
      ],
      "stateMutability": "view",
      "type": "function"
    },
    {
      "inputs": [],
      "name": "renounceOwnership",
      "outputs": [],
      "stateMutability": "nonpayable",
      "type": "function"
    },
    {
      "inputs": [],
      "name": "rewardPerSecond",
      "outputs": [
        {
          "internalType": "uint64",
          "name": "",
          "type": "uint64"
        }
      ],
      "stateMutability": "view",
      "type": "function"
    },
    {
      "inputs": [
        {
          "internalType": "uint96",
          "name": "_value",
          "type": "uint96"
        },
        {
          "internalType": "uint64",
          "name": "_lockDuration",
          "type": "uint64"
        }
      ],
      "name": "stake",
      "outputs": [],
      "stateMutability": "nonpayable",
      "type": "function"
    },
    {
      "inputs": [
        {
          "internalType": "address",
          "name": "_staker",
          "type": "address"
        },
        {
          "internalType": "uint256",
          "name": "_value",
          "type": "uint256"
        }
      ],
      "name": "stakeFromLPPool",
      "outputs": [],
      "stateMutability": "nonpayable",
      "type": "function"
    },
    {
      "inputs": [],
      "name": "totalPoolWeightedShares",
      "outputs": [
        {
          "internalType": "uint256",
          "name": "",
          "type": "uint256"
        }
      ],
      "stateMutability": "view",
      "type": "function"
    },
    {
      "inputs": [],
      "name": "totalTokensInPool",
      "outputs": [
        {
          "internalType": "uint96",
          "name": "",
          "type": "uint96"
        }
      ],
      "stateMutability": "view",
      "type": "function"
    },
    {
      "inputs": [
        {
          "internalType": "address",
          "name": "newOwner",
          "type": "address"
        }
      ],
      "name": "transferOwnership",
      "outputs": [],
      "stateMutability": "nonpayable",
      "type": "function"
    },
    {
      "inputs": [
        {
          "internalType": "uint256",
          "name": "_stakeId",
          "type": "uint256"
        }
      ],
      "name": "unstake",
      "outputs": [],
      "stateMutability": "nonpayable",
      "type": "function"
    },
    {
      "inputs": [],
      "name": "updateRewardPerSecond",
      "outputs": [],
      "stateMutability": "nonpayable",
      "type": "function"
    },
    {
      "inputs": [
        {
          "internalType": "address",
          "name": "",
          "type": "address"
        }
      ],
      "name": "users",
      "outputs": [
        {
          "internalType": "uint96",
          "name": "pendingYield",
          "type": "uint96"
        },
        {
          "internalType": "uint160",
          "name": "totalWeightedShares",
          "type": "uint160"
        },
        {
          "internalType": "uint256",
          "name": "yieldRewardsPerSharePaid",
          "type": "uint256"
        }
      ],
      "stateMutability": "view",
      "type": "function"
    }
  ],
  "bytecode": "0x60806040523480156200001157600080fd5b5060405162002e7f38038062002e7f833981810160405281019062000037919062000296565b620000576200004b6200016060201b60201c565b6200016860201b60201c565b81600160006101000a81548173ffffffffffffffffffffffffffffffffffffffff021916908373ffffffffffffffffffffffffffffffffffffffff16021790555080600260006101000a81548173ffffffffffffffffffffffffffffffffffffffff021916908373ffffffffffffffffffffffffffffffffffffffff16021790555081600360006101000a81548173ffffffffffffffffffffffffffffffffffffffff021916908373ffffffffffffffffffffffffffffffffffffffff160217905550600a668c542371092ffc62000130919062000316565b600260186101000a81548167ffffffffffffffff021916908367ffffffffffffffff16021790555050506200034e565b600033905090565b60008060009054906101000a900473ffffffffffffffffffffffffffffffffffffffff169050816000806101000a81548173ffffffffffffffffffffffffffffffffffffffff021916908373ffffffffffffffffffffffffffffffffffffffff1602179055508173ffffffffffffffffffffffffffffffffffffffff168173ffffffffffffffffffffffffffffffffffffffff167f8be0079c531659141344cd1fd0a4f28419497f9722a3daafe3b4186f6b6457e060405160405180910390a35050565b600080fd5b600073ffffffffffffffffffffffffffffffffffffffff82169050919050565b60006200025e8262000231565b9050919050565b620002708162000251565b81146200027c57600080fd5b50565b600081519050620002908162000265565b92915050565b60008060408385031215620002b057620002af6200022c565b5b6000620002c0858286016200027f565b9250506020620002d3858286016200027f565b9150509250929050565b6000819050919050565b7f4e487b7100000000000000000000000000000000000000000000000000000000600052601260045260246000fd5b60006200032382620002dd565b91506200033083620002dd565b925082620003435762000342620002e7565b5b828204905092915050565b612b21806200035e6000396000f3fe608060405234801561001057600080fd5b50600436106101005760003560e01c80638f10369a11610097578063db0f53f911610066578063db0f53f914610279578063e24bb2e514610283578063ed36b5b21461029f578063f2fde38b146102a957610100565b80638f10369a146101ed578063a0e99fcb1461020b578063a87430ba14610229578063cbdf382c1461025b57610100565b8063485cc955116100d3578063485cc9551461018b5780636ffbdae4146101a7578063715018a6146101c55780638da5cb5b146101cf57610100565b806311961d58146101055780632e17de78146101215780633197cbb61461013d57806331d7a2621461015b575b600080fd5b61011f600480360381019061011a9190612138565b6102c5565b005b61013b60048036038101906101369190612178565b610746565b005b610145610b7d565b60405161015291906121c4565b60405180910390f35b610175600480360381019061017091906121df565b610b93565b604051610182919061221b565b60405180910390f35b6101a560048036038101906101a09190612236565b610daa565b005b6101af610f0c565b6040516101bc919061221b565b60405180910390f35b6101cd610f12565b005b6101d7610f26565b6040516101e49190612285565b60405180910390f35b6101f5610f4f565b60405161020291906122c3565b60405180910390f35b610213610f69565b6040516102209190612305565b60405180910390f35b610243600480360381019061023e91906121df565b610f87565b6040516102529392919061232f565b60405180910390f35b610263610fe9565b6040516102709190612285565b60405180910390f35b61028161100f565b005b61029d600480360381019061029891906123be565b611471565b005b6102a76118f6565b005b6102c360048036038101906102be91906121df565b611a12565b005b600073ffffffffffffffffffffffffffffffffffffffff168273ffffffffffffffffffffffffffffffffffffffff160361032b576040517f6803935b00000000000000000000000000000000000000000000000000000000815260040160405180910390fd5b600760009054906101000a900473ffffffffffffffffffffffffffffffffffffffff1673ffffffffffffffffffffffffffffffffffffffff163373ffffffffffffffffffffffffffffffffffffffff16146103b2576040517f5871aa0d00000000000000000000000000000000000000000000000000000000815260040160405180910390fd5b6000600860008473ffffffffffffffffffffffffffffffffffffffff1673ffffffffffffffffffffffffffffffffffffffff16815260200190815260200160002090506103fe83611a95565b6000621e84808361040f919061242d565b905060006301e1338042610423919061246f565b905060006040518060800160405280866bffffffffffffffffffffffff1681526020014267ffffffffffffffff1681526020018367ffffffffffffffff168152602001600115158152509050826fffffffffffffffffffffffffffffffff1684600001600c8282829054906101000a900473ffffffffffffffffffffffffffffffffffffffff166104b491906124a3565b92506101000a81548173ffffffffffffffffffffffffffffffffffffffff021916908373ffffffffffffffffffffffffffffffffffffffff16021790555083600201819080600181540180825580915050600190039060005260206000200160009091909190915060008201518160000160006101000a8154816bffffffffffffffffffffffff02191690836bffffffffffffffffffffffff160217905550602082015181600001600c6101000a81548167ffffffffffffffff021916908367ffffffffffffffff16021790555060408201518160000160146101000a81548167ffffffffffffffff021916908367ffffffffffffffff160217905550606082015181600001601c6101000a81548160ff021916908315150217905550505082600560008282546105e5919061246f565b9250508190555084600160148282829054906101000a90046bffffffffffffffffffffffff1661061591906124eb565b92506101000a8154816bffffffffffffffffffffffff02191690836bffffffffffffffffffffffff160217905550600160009054906101000a900473ffffffffffffffffffffffffffffffffffffffff1673ffffffffffffffffffffffffffffffffffffffff166340c10f1930876040518363ffffffff1660e01b81526004016106a092919061252b565b600060405180830381600087803b1580156106ba57600080fd5b505af11580156106ce573d6000803e3d6000fd5b505050508573ffffffffffffffffffffffffffffffffffffffff167f7396fefe2cd6af2ed7e2f5e3115968438aac582eb6e5143e4fa009f190ec58576001866002018054905061071e9190612554565b874286621e8480604051610736959493929190612588565b60405180910390a2505050505050565b6000600860003373ffffffffffffffffffffffffffffffffffffffff1673ffffffffffffffffffffffffffffffffffffffff168152602001908152602001600020905060008160020183815481106107a1576107a06125db565b5b9060005260206000200190508060000160149054906101000a900467ffffffffffffffff1667ffffffffffffffff16421015610809576040517f46011bae00000000000000000000000000000000000000000000000000000000815260040160405180910390fd5b6000808260000160009054906101000a90046bffffffffffffffffffffffff1683600001601c9054906101000a900460ff169150915061084833611a95565b600061085384611c4c565b905084600201868154811061086b5761086a6125db565b5b90600052602060002001600080820160006101000a8154906bffffffffffffffffffffffff021916905560008201600c6101000a81549067ffffffffffffffff02191690556000820160146101000a81549067ffffffffffffffff021916905560008201601c6101000a81549060ff021916905550508085600001600c9054906101000a900473ffffffffffffffffffffffffffffffffffffffff1673ffffffffffffffffffffffffffffffffffffffff166109279190612554565b85600001600c6101000a81548173ffffffffffffffffffffffffffffffffffffffff021916908373ffffffffffffffffffffffffffffffffffffffff160217905550806005600082825461097b9190612554565b9250508190555082600160148282829054906101000a90046bffffffffffffffffffffffff166109ab919061260a565b92506101000a8154816bffffffffffffffffffffffff02191690836bffffffffffffffffffffffff1602179055508115610a8557600160009054906101000a900473ffffffffffffffffffffffffffffffffffffffff1673ffffffffffffffffffffffffffffffffffffffff1663a9059cbb33856040518363ffffffff1660e01b8152600401610a3c929190612685565b6020604051808303816000875af1158015610a5b573d6000803e3d6000fd5b505050506040513d601f19601f82011682018060405250810190610a7f91906126e6565b50610b27565b600360009054906101000a900473ffffffffffffffffffffffffffffffffffffffff1673ffffffffffffffffffffffffffffffffffffffff1663a9059cbb33856040518363ffffffff1660e01b8152600401610ae2929190612685565b6020604051808303816000875af1158015610b01573d6000803e3d6000fd5b505050506040513d601f19601f82011682018060405250810190610b2591906126e6565b505b3373ffffffffffffffffffffffffffffffffffffffff167f85082129d87b2fe11527cb1b3b7a520aeb5aa6913f88a3d8757fe40d1db02fdd87604051610b6d919061221b565b60405180910390a2505050505050565b600360189054906101000a900463ffffffff1681565b60008073ffffffffffffffffffffffffffffffffffffffff168273ffffffffffffffffffffffffffffffffffffffff1603610bfa576040517f6803935b00000000000000000000000000000000000000000000000000000000815260040160405180910390fd5b600060055403610c0d5760009050610da5565b6000600860008473ffffffffffffffffffffffffffffffffffffffff1673ffffffffffffffffffffffffffffffffffffffff16815260200190815260200160002090506000600360189054906101000a900463ffffffff1663ffffffff164211610c9a57600260149054906101000a900463ffffffff1663ffffffff1642610c959190612554565b610cd1565b600260149054906101000a900463ffffffff16600360189054906101000a900463ffffffff16610cca9190612713565b63ffffffff165b90506000600260189054906101000a900467ffffffffffffffff1667ffffffffffffffff1682610d01919061242d565b90506000600454610d1483600554611cfb565b610d1e919061246f565b90508360000160009054906101000a90046bffffffffffffffffffffffff166bffffffffffffffffffffffff16610d9485600001600c9054906101000a900473ffffffffffffffffffffffffffffffffffffffff1673ffffffffffffffffffffffffffffffffffffffff16838760010154611d21565b610d9e919061246f565b9450505050505b919050565b610db2611d53565b6003601c9054906101000a900460ff1615610df9576040517f1a98fc8100000000000000000000000000000000000000000000000000000000815260040160405180910390fd5b81600660006101000a81548173ffffffffffffffffffffffffffffffffffffffff021916908373ffffffffffffffffffffffffffffffffffffffff16021790555080600760006101000a81548173ffffffffffffffffffffffffffffffffffffffff021916908373ffffffffffffffffffffffffffffffffffffffff160217905550630968a48042610e8b919061246f565b600360186101000a81548163ffffffff021916908363ffffffff16021790555042600360146101000a81548163ffffffff021916908363ffffffff16021790555042600260146101000a81548163ffffffff021916908363ffffffff16021790555060016003601c6101000a81548160ff0219169083151502179055505050565b60055481565b610f1a611d53565b610f246000611dd1565b565b60008060009054906101000a900473ffffffffffffffffffffffffffffffffffffffff16905090565b600260189054906101000a900467ffffffffffffffff1681565b600160149054906101000a90046bffffffffffffffffffffffff1681565b60086020528060005260406000206000915090508060000160009054906101000a90046bffffffffffffffffffffffff169080600001600c9054906101000a900473ffffffffffffffffffffffffffffffffffffffff16908060010154905083565b600360009054906101000a900473ffffffffffffffffffffffffffffffffffffffff1681565b6000600860003373ffffffffffffffffffffffffffffffffffffffff1673ffffffffffffffffffffffffffffffffffffffff168152602001908152602001600020905061105b33611a95565b60008160000160009054906101000a90046bffffffffffffffffffffffff1690506000816bffffffffffffffffffffffff160361109957505061146f565b60008260000160006101000a8154816bffffffffffffffffffffffff02191690836bffffffffffffffffffffffff1602179055506000621e8480826bffffffffffffffffffffffff166110ec919061242d565b905060006301e1338042611100919061246f565b905060006040518060800160405280856bffffffffffffffffffffffff1681526020014267ffffffffffffffff1681526020018367ffffffffffffffff16815260200160011515815250905084600201819080600181540180825580915050600190039060005260206000200160009091909190915060008201518160000160006101000a8154816bffffffffffffffffffffffff02191690836bffffffffffffffffffffffff160217905550602082015181600001600c6101000a81548167ffffffffffffffff021916908367ffffffffffffffff16021790555060408201518160000160146101000a81548167ffffffffffffffff021916908367ffffffffffffffff160217905550606082015181600001601c6101000a81548160ff0219169083151502179055505050826fffffffffffffffffffffffffffffffff1685600001600c8282829054906101000a900473ffffffffffffffffffffffffffffffffffffffff1661127291906124a3565b92506101000a81548173ffffffffffffffffffffffffffffffffffffffff021916908373ffffffffffffffffffffffffffffffffffffffff16021790555082600560008282546112c2919061246f565b9250508190555083600160148282829054906101000a90046bffffffffffffffffffffffff166112f291906124eb565b92506101000a8154816bffffffffffffffffffffffff02191690836bffffffffffffffffffffffff160217905550600160009054906101000a900473ffffffffffffffffffffffffffffffffffffffff1673ffffffffffffffffffffffffffffffffffffffff166340c10f1930866040518363ffffffff1660e01b815260040161137d929190612685565b600060405180830381600087803b15801561139757600080fd5b505af11580156113ab573d6000803e3d6000fd5b505050503373ffffffffffffffffffffffffffffffffffffffff167f6257531a949dcb8fa7034596782db5a55116ef92d67d5814eabb3426a3a016a9856040516113f5919061274b565b60405180910390a23373ffffffffffffffffffffffffffffffffffffffff167f7396fefe2cd6af2ed7e2f5e3115968438aac582eb6e5143e4fa009f190ec5857600187600201805490506114499190612554565b864286621e8480604051611461959493929190612766565b60405180910390a250505050505b565b6000826bffffffffffffffffffffffff16036114b9576040517fe19a65fe00000000000000000000000000000000000000000000000000000000815260040160405180910390fd5b60018167ffffffffffffffff1610806114df5750630968a4808167ffffffffffffffff16115b15611516576040517fac56ac5400000000000000000000000000000000000000000000000000000000815260040160405180910390fd5b6000600860003373ffffffffffffffffffffffffffffffffffffffff1673ffffffffffffffffffffffffffffffffffffffff168152602001908152602001600020905061156233611a95565b6000824261157091906127b9565b90506000620f4240630968a480624c4b40428561158d91906127f5565b67ffffffffffffffff166115a1919061242d565b6115ab9190612860565b6115b5919061246f565b90506000856bffffffffffffffffffffffff16826115d3919061242d565b905060006040518060800160405280886bffffffffffffffffffffffff1681526020014267ffffffffffffffff1681526020018567ffffffffffffffff16815260200160001515815250905084600201819080600181540180825580915050600190039060005260206000200160009091909190915060008201518160000160006101000a8154816bffffffffffffffffffffffff02191690836bffffffffffffffffffffffff160217905550602082015181600001600c6101000a81548167ffffffffffffffff021916908367ffffffffffffffff16021790555060408201518160000160146101000a81548167ffffffffffffffff021916908367ffffffffffffffff160217905550606082015181600001601c6101000a81548160ff02191690831515021790555050508185600001600c8282829054906101000a900473ffffffffffffffffffffffffffffffffffffffff1661173391906124a3565b92506101000a81548173ffffffffffffffffffffffffffffffffffffffff021916908373ffffffffffffffffffffffffffffffffffffffff1602179055508160056000828254611783919061246f565b9250508190555086600160148282829054906101000a90046bffffffffffffffffffffffff166117b391906124eb565b92506101000a8154816bffffffffffffffffffffffff02191690836bffffffffffffffffffffffff160217905550600360009054906101000a900473ffffffffffffffffffffffffffffffffffffffff1673ffffffffffffffffffffffffffffffffffffffff166323b872dd33308a6040518463ffffffff1660e01b815260040161184093929190612891565b6020604051808303816000875af115801561185f573d6000803e3d6000fd5b505050506040513d601f19601f8201168201806040525081019061188391906126e6565b503373ffffffffffffffffffffffffffffffffffffffff167f7396fefe2cd6af2ed7e2f5e3115968438aac582eb6e5143e4fa009f190ec5857600187600201805490506118d09190612554565b894288886040516118e5959493929190612766565b60405180910390a250505050505050565b6118fe611e95565b611934576040517fd348c96800000000000000000000000000000000000000000000000000000000815260040160405180910390fd5b60646065600260189054906101000a900467ffffffffffffffff1661195991906128c8565b6119639190612905565b600260186101000a81548167ffffffffffffffff021916908367ffffffffffffffff16021790555042600360146101000a81548163ffffffff021916908363ffffffff1602179055503373ffffffffffffffffffffffffffffffffffffffff167f6b0c79aba8ff3f5ede2d55cbbf057c3439ed153c0105945cbd9f112a0a9d0a36600260189054906101000a900467ffffffffffffffff16604051611a089190612967565b60405180910390a2565b611a1a611d53565b600073ffffffffffffffffffffffffffffffffffffffff168173ffffffffffffffffffffffffffffffffffffffff1603611a89576040517f08c379a0000000000000000000000000000000000000000000000000000000008152600401611a8090612a05565b60405180910390fd5b611a9281611dd1565b50565b600073ffffffffffffffffffffffffffffffffffffffff168173ffffffffffffffffffffffffffffffffffffffff1603611afb576040517f6803935b00000000000000000000000000000000000000000000000000000000815260040160405180910390fd5b611b03611ef0565b6000600860008373ffffffffffffffffffffffffffffffffffffffff1673ffffffffffffffffffffffffffffffffffffffff16815260200190815260200160002090506000611b9382600001600c9054906101000a900473ffffffffffffffffffffffffffffffffffffffff1673ffffffffffffffffffffffffffffffffffffffff166004548460010154611d21565b9050808260000160008282829054906101000a90046bffffffffffffffffffffffff16611bc091906124eb565b92506101000a8154816bffffffffffffffffffffffff02191690836bffffffffffffffffffffffff16021790555060045482600101819055508273ffffffffffffffffffffffffffffffffffffffff167f6ecb3578d0246bd181c85826dc9504ede4ffd2973a363722efab3c3c7aef3cf682604051611c3f919061221b565b60405180910390a2505050565b60008160000160009054906101000a90046bffffffffffffffffffffffff166bffffffffffffffffffffffff16620f4240630968a480624c4b4085600001600c9054906101000a900467ffffffffffffffff168660000160149054906101000a900467ffffffffffffffff16611cc291906127f5565b67ffffffffffffffff16611cd6919061242d565b611ce09190612860565b611cea919061246f565b611cf4919061242d565b9050919050565b60008164e8d4a5100084611d0f919061242d565b611d199190612860565b905092915050565b600064e8d4a510008284611d359190612554565b85611d40919061242d565b611d4a9190612860565b90509392505050565b611d5b612097565b73ffffffffffffffffffffffffffffffffffffffff16611d79610f26565b73ffffffffffffffffffffffffffffffffffffffff1614611dcf576040517f08c379a0000000000000000000000000000000000000000000000000000000008152600401611dc690612a71565b60405180910390fd5b565b60008060009054906101000a900473ffffffffffffffffffffffffffffffffffffffff169050816000806101000a81548173ffffffffffffffffffffffffffffffffffffffff021916908373ffffffffffffffffffffffffffffffffffffffff1602179055508173ffffffffffffffffffffffffffffffffffffffff168173ffffffffffffffffffffffffffffffffffffffff167f8be0079c531659141344cd1fd0a4f28419497f9722a3daafe3b4186f6b6457e060405160405180910390a35050565b6000600360189054906101000a900463ffffffff1663ffffffff16421115611ec05760009050611eed565b62093a80600360149054906101000a900463ffffffff1663ffffffff16611ee7919061246f565b42101590505b90565b611ef8611e95565b15611f0657611f056118f6565b5b600060055403611f365742600260146101000a81548163ffffffff021916908363ffffffff160217905550612095565b6000600360189054906101000a900463ffffffff1663ffffffff164211611f8057600260149054906101000a900463ffffffff1663ffffffff1642611f7b9190612554565b611fb7565b600260149054906101000a900463ffffffff16600360189054906101000a900463ffffffff16611fb09190612713565b63ffffffff165b90506000600260189054906101000a900467ffffffffffffffff1667ffffffffffffffff1682611fe7919061242d565b9050611ff581600554611cfb565b60046000828254612006919061246f565b9250508190555042600260146101000a81548163ffffffff021916908363ffffffff1602179055503373ffffffffffffffffffffffffffffffffffffffff167f50cd981a6fc3ae42b92c6fb6313984eea358c557449fe2c659db469578ea04a6600454600260149054906101000a900463ffffffff1660405161208a929190612ac2565b60405180910390a250505b565b600033905090565b600080fd5b600073ffffffffffffffffffffffffffffffffffffffff82169050919050565b60006120cf826120a4565b9050919050565b6120df816120c4565b81146120ea57600080fd5b50565b6000813590506120fc816120d6565b92915050565b6000819050919050565b61211581612102565b811461212057600080fd5b50565b6000813590506121328161210c565b92915050565b6000806040838503121561214f5761214e61209f565b5b600061215d858286016120ed565b925050602061216e85828601612123565b9150509250929050565b60006020828403121561218e5761218d61209f565b5b600061219c84828501612123565b91505092915050565b600063ffffffff82169050919050565b6121be816121a5565b82525050565b60006020820190506121d960008301846121b5565b92915050565b6000602082840312156121f5576121f461209f565b5b6000612203848285016120ed565b91505092915050565b61221581612102565b82525050565b6000602082019050612230600083018461220c565b92915050565b6000806040838503121561224d5761224c61209f565b5b600061225b858286016120ed565b925050602061226c858286016120ed565b9150509250929050565b61227f816120c4565b82525050565b600060208201905061229a6000830184612276565b92915050565b600067ffffffffffffffff82169050919050565b6122bd816122a0565b82525050565b60006020820190506122d860008301846122b4565b92915050565b60006bffffffffffffffffffffffff82169050919050565b6122ff816122de565b82525050565b600060208201905061231a60008301846122f6565b92915050565b612329816120a4565b82525050565b600060608201905061234460008301866122f6565b6123516020830185612320565b61235e604083018461220c565b949350505050565b61236f816122de565b811461237a57600080fd5b50565b60008135905061238c81612366565b92915050565b61239b816122a0565b81146123a657600080fd5b50565b6000813590506123b881612392565b92915050565b600080604083850312156123d5576123d461209f565b5b60006123e38582860161237d565b92505060206123f4858286016123a9565b9150509250929050565b7f4e487b7100000000000000000000000000000000000000000000000000000000600052601160045260246000fd5b600061243882612102565b915061244383612102565b925082820261245181612102565b91508282048414831517612468576124676123fe565b5b5092915050565b600061247a82612102565b915061248583612102565b925082820190508082111561249d5761249c6123fe565b5b92915050565b60006124ae826120a4565b91506124b9836120a4565b9250828201905073ffffffffffffffffffffffffffffffffffffffff8111156124e5576124e46123fe565b5b92915050565b60006124f6826122de565b9150612501836122de565b925082820190506bffffffffffffffffffffffff811115612525576125246123fe565b5b92915050565b60006040820190506125406000830185612276565b61254d602083018461220c565b9392505050565b600061255f82612102565b915061256a83612102565b9250828203905081811115612582576125816123fe565b5b92915050565b600060a08201905061259d600083018861220c565b6125aa602083018761220c565b6125b7604083018661220c565b6125c460608301856122b4565b6125d1608083018461220c565b9695505050505050565b7f4e487b7100000000000000000000000000000000000000000000000000000000600052603260045260246000fd5b6000612615826122de565b9150612620836122de565b925082820390506bffffffffffffffffffffffff811115612644576126436123fe565b5b92915050565b6000819050919050565b600061266f61266a612665846122de565b61264a565b612102565b9050919050565b61267f81612654565b82525050565b600060408201905061269a6000830185612276565b6126a76020830184612676565b9392505050565b60008115159050919050565b6126c3816126ae565b81146126ce57600080fd5b50565b6000815190506126e0816126ba565b92915050565b6000602082840312156126fc576126fb61209f565b5b600061270a848285016126d1565b91505092915050565b600061271e826121a5565b9150612729836121a5565b9250828203905063ffffffff811115612745576127446123fe565b5b92915050565b60006020820190506127606000830184612676565b92915050565b600060a08201905061277b600083018861220c565b6127886020830187612676565b612795604083018661220c565b6127a260608301856122b4565b6127af608083018461220c565b9695505050505050565b60006127c4826122a0565b91506127cf836122a0565b9250828201905067ffffffffffffffff8111156127ef576127ee6123fe565b5b92915050565b6000612800826122a0565b915061280b836122a0565b9250828203905067ffffffffffffffff81111561282b5761282a6123fe565b5b92915050565b7f4e487b7100000000000000000000000000000000000000000000000000000000600052601260045260246000fd5b600061286b82612102565b915061287683612102565b92508261288657612885612831565b5b828204905092915050565b60006060820190506128a66000830186612276565b6128b36020830185612276565b6128c06040830184612676565b949350505050565b60006128d3826122a0565b91506128de836122a0565b92508282026128ec816122a0565b91508082146128fe576128fd6123fe565b5b5092915050565b6000612910826122a0565b915061291b836122a0565b92508261292b5761292a612831565b5b828204905092915050565b600061295161294c612947846122a0565b61264a565b612102565b9050919050565b61296181612936565b82525050565b600060208201905061297c6000830184612958565b92915050565b600082825260208201905092915050565b7f4f776e61626c653a206e6577206f776e657220697320746865207a65726f206160008201527f6464726573730000000000000000000000000000000000000000000000000000602082015250565b60006129ef602683612982565b91506129fa82612993565b604082019050919050565b60006020820190508181036000830152612a1e816129e2565b9050919050565b7f4f776e61626c653a2063616c6c6572206973206e6f7420746865206f776e6572600082015250565b6000612a5b602083612982565b9150612a6682612a25565b602082019050919050565b60006020820190508181036000830152612a8a81612a4e565b9050919050565b6000612aac612aa7612aa2846121a5565b61264a565b6122a0565b9050919050565b612abc81612a91565b82525050565b6000604082019050612ad7600083018561220c565b612ae46020830184612ab3565b939250505056fea26469706673582212203c5930b2601773c474e500a7256243081e950979f686f22a5e5447791e0233a564736f6c63430008120033",
  "linkReferences": {},
  "deployedLinkReferences": {}
}