{
  "_format": "hh-sol-artifact-1",
  "contractName": "SnowfallEthPool",
  "sourceName": "contracts/SnowfallEthPool.sol",
  "abi": [
    {
      "inputs": [
        {
          "internalType": "address",
          "name": "_snowToken",
          "type": "address"
        },
        {
          "internalType": "address",
          "name": "_lpToken",
          "type": "address"
        }
      ],
      "stateMutability": "nonpayable",
      "type": "constructor"
    },
    {
      "inputs": [],
      "name": "CorePool__AlreadyInitialized",
      "type": "error"
    },
    {
      "inputs": [],
      "name": "CorePool__CannotUpdateRewardRatioYet",
      "type": "error"
    },
    {
      "inputs": [],
      "name": "CorePool__InvalidLockPeriod",
      "type": "error"
    },
    {
      "inputs": [],
      "name": "CorePool__InvalidStakerAddress",
      "type": "error"
    },
    {
      "inputs": [],
      "name": "CorePool__NotUnlockedYet",
      "type": "error"
    },
    {
      "inputs": [],
      "name": "CorePool__ValueCannotBeZero",
      "type": "error"
    },
    {
      "inputs": [],
      "name": "SnowfallEthPool__CannotCallThisFunction",
      "type": "error"
    },
    {
      "anonymous": false,
      "inputs": [
        {
          "indexed": true,
          "internalType": "address",
          "name": "account",
          "type": "address"
        },
        {
          "indexed": false,
          "internalType": "uint256",
          "name": "value",
          "type": "uint256"
        }
      ],
      "name": "ClaimYieldRewards",
      "type": "event"
    },
    {
      "anonymous": false,
      "inputs": [
        {
          "indexed": true,
          "internalType": "address",
          "name": "previousOwner",
          "type": "address"
        },
        {
          "indexed": true,
          "internalType": "address",
          "name": "newOwner",
          "type": "address"
        }
      ],
      "name": "OwnershipTransferred",
      "type": "event"
    },
    {
      "anonymous": false,
      "inputs": [
        {
          "indexed": true,
          "internalType": "address",
          "name": "account",
          "type": "address"
        },
        {
          "indexed": false,
          "internalType": "uint256",
          "name": "stakeId",
          "type": "uint256"
        },
        {
          "indexed": false,
          "internalType": "uint256",
          "name": "value",
          "type": "uint256"
        },
        {
          "indexed": false,
          "internalType": "uint256",
          "name": "stakeTime",
          "type": "uint256"
        },
        {
          "indexed": false,
          "internalType": "uint64",
          "name": "lockedUntil",
          "type": "uint64"
        },
        {
          "indexed": false,
          "internalType": "uint256",
          "name": "stakeWeight",
          "type": "uint256"
        }
      ],
      "name": "Staked",
      "type": "event"
    },
    {
      "anonymous": false,
      "inputs": [
        {
          "indexed": true,
          "internalType": "address",
          "name": "by",
          "type": "address"
        },
        {
          "indexed": false,
          "internalType": "uint256",
          "name": "yieldRewardsPerShare",
          "type": "uint256"
        },
        {
          "indexed": false,
          "internalType": "uint64",
          "name": "lastYieldDistribution",
          "type": "uint64"
        }
      ],
      "name": "Synced",
      "type": "event"
    },
    {
      "anonymous": false,
      "inputs": [
        {
          "indexed": true,
          "internalType": "address",
          "name": "account",
          "type": "address"
        },
        {
          "indexed": false,
          "internalType": "uint256",
          "name": "stakeId",
          "type": "uint256"
        },
        {
          "indexed": false,
          "internalType": "bool",
          "name": "isYield",
          "type": "bool"
        }
      ],
      "name": "Unstake",
      "type": "event"
    },
    {
      "anonymous": false,
      "inputs": [
        {
          "indexed": true,
          "internalType": "address",
          "name": "by",
          "type": "address"
        },
        {
          "indexed": false,
          "internalType": "uint256",
          "name": "newRewardPerSecond",
          "type": "uint256"
        }
      ],
      "name": "UpdateRewardPerSecond",
      "type": "event"
    },
    {
      "anonymous": false,
      "inputs": [
        {
          "indexed": true,
          "internalType": "address",
          "name": "account",
          "type": "address"
        },
        {
          "indexed": false,
          "internalType": "uint256",
          "name": "yieldValue",
          "type": "uint256"
        }
      ],
      "name": "UpdateRewards",
      "type": "event"
    },
    {
      "inputs": [],
      "name": "claimYieldRewards",
      "outputs": [],
      "stateMutability": "nonpayable",
      "type": "function"
    },
    {
      "inputs": [],
      "name": "endTime",
      "outputs": [
        {
          "internalType": "uint32",
          "name": "",
          "type": "uint32"
        }
      ],
      "stateMutability": "view",
      "type": "function"
    },
    {
      "inputs": [
        {
          "internalType": "address",
          "name": "_singlePoolAddress",
          "type": "address"
        },
        {
          "internalType": "address",
          "name": "_lpPoolAddress",
          "type": "address"
        }
      ],
      "name": "initialize",
      "outputs": [],
      "stateMutability": "nonpayable",
      "type": "function"
    },
    {
      "inputs": [],
      "name": "lastRewardPerSecUpdate",
      "outputs": [
        {
          "internalType": "uint32",
          "name": "",
          "type": "uint32"
        }
      ],
      "stateMutability": "view",
      "type": "function"
    },
    {
      "inputs": [],
      "name": "lastYieldDistribution",
      "outputs": [
        {
          "internalType": "uint64",
          "name": "",
          "type": "uint64"
        }
      ],
      "stateMutability": "view",
      "type": "function"
    },
    {
      "inputs": [],
      "name": "lpToken",
      "outputs": [
        {
          "internalType": "address",
          "name": "",
          "type": "address"
        }
      ],
      "stateMutability": "view",
      "type": "function"
    },
    {
      "inputs": [],
      "name": "owner",
      "outputs": [
        {
          "internalType": "address",
          "name": "",
          "type": "address"
        }
      ],
      "stateMutability": "view",
      "type": "function"
    },
    {
      "inputs": [
        {
          "internalType": "address",
          "name": "_staker",
          "type": "address"
        }
      ],
      "name": "pendingRewards",
      "outputs": [
        {
          "internalType": "uint256",
          "name": "",
          "type": "uint256"
        }
      ],
      "stateMutability": "view",
      "type": "function"
    },
    {
      "inputs": [],
      "name": "poolToken",
      "outputs": [
        {
          "internalType": "address",
          "name": "",
          "type": "address"
        }
      ],
      "stateMutability": "view",
      "type": "function"
    },
    {
      "inputs": [],
      "name": "renounceOwnership",
      "outputs": [],
      "stateMutability": "nonpayable",
      "type": "function"
    },
    {
      "inputs": [],
      "name": "rewardPerSecond",
      "outputs": [
        {
          "internalType": "uint192",
          "name": "",
          "type": "uint192"
        }
      ],
      "stateMutability": "view",
      "type": "function"
    },
    {
      "inputs": [],
      "name": "snowToken",
      "outputs": [
        {
          "internalType": "address",
          "name": "",
          "type": "address"
        }
      ],
      "stateMutability": "view",
      "type": "function"
    },
    {
      "inputs": [
        {
          "internalType": "uint256",
          "name": "_value",
          "type": "uint256"
        },
        {
          "internalType": "uint64",
          "name": "_lockDuration",
          "type": "uint64"
        }
      ],
      "name": "stake",
      "outputs": [],
      "stateMutability": "nonpayable",
      "type": "function"
    },
    {
      "inputs": [
        {
          "internalType": "address",
          "name": "_staker",
          "type": "address"
        },
        {
          "internalType": "uint256",
          "name": "_value",
          "type": "uint256"
        }
      ],
      "name": "stakeFromLPPool",
      "outputs": [],
      "stateMutability": "pure",
      "type": "function"
    },
    {
      "inputs": [],
      "name": "totalPoolWeightedShares",
      "outputs": [
        {
          "internalType": "uint256",
          "name": "",
          "type": "uint256"
        }
      ],
      "stateMutability": "view",
      "type": "function"
    },
    {
      "inputs": [],
      "name": "totalTokensInPool",
      "outputs": [
        {
          "internalType": "uint256",
          "name": "",
          "type": "uint256"
        }
      ],
      "stateMutability": "view",
      "type": "function"
    },
    {
      "inputs": [
        {
          "internalType": "address",
          "name": "newOwner",
          "type": "address"
        }
      ],
      "name": "transferOwnership",
      "outputs": [],
      "stateMutability": "nonpayable",
      "type": "function"
    },
    {
      "inputs": [
        {
          "internalType": "uint256",
          "name": "_stakeId",
          "type": "uint256"
        }
      ],
      "name": "unstake",
      "outputs": [],
      "stateMutability": "nonpayable",
      "type": "function"
    },
    {
      "inputs": [],
      "name": "updateRewardPerSecond",
      "outputs": [],
      "stateMutability": "nonpayable",
      "type": "function"
    },
    {
      "inputs": [
        {
          "internalType": "address",
          "name": "",
          "type": "address"
        }
      ],
      "name": "users",
      "outputs": [
        {
          "internalType": "uint128",
          "name": "pendingYield",
          "type": "uint128"
        },
        {
          "internalType": "uint128",
          "name": "totalWeightedShares",
          "type": "uint128"
        },
        {
          "internalType": "uint256",
          "name": "yieldRewardsPerSharePaid",
          "type": "uint256"
        }
      ],
      "stateMutability": "view",
      "type": "function"
    },
    {
      "inputs": [],
      "name": "yieldRewardsPerShare",
      "outputs": [
        {
          "internalType": "uint256",
          "name": "",
          "type": "uint256"
        }
      ],
      "stateMutability": "view",
      "type": "function"
    }
  ],
  "bytecode": "0x60806040523480156200001157600080fd5b506040516200290a3803806200290a8339818101604052810190620000379190620002c4565b620000576200004b6200018e60201b60201c565b6200019660201b60201c565b81600160006101000a81548173ffffffffffffffffffffffffffffffffffffffff021916908373ffffffffffffffffffffffffffffffffffffffff16021790555080600260006101000a81548173ffffffffffffffffffffffffffffffffffffffff021916908373ffffffffffffffffffffffffffffffffffffffff16021790555080600360006101000a81548173ffffffffffffffffffffffffffffffffffffffff021916908373ffffffffffffffffffffffffffffffffffffffff160217905550600a6009668c542371092ffc62000132919062000344565b6200013e9190620003be565b600a60006101000a81548177ffffffffffffffffffffffffffffffffffffffffffffffff021916908377ffffffffffffffffffffffffffffffffffffffffffffffff1602179055505050620003f6565b600033905090565b60008060009054906101000a900473ffffffffffffffffffffffffffffffffffffffff169050816000806101000a81548173ffffffffffffffffffffffffffffffffffffffff021916908373ffffffffffffffffffffffffffffffffffffffff1602179055508173ffffffffffffffffffffffffffffffffffffffff168173ffffffffffffffffffffffffffffffffffffffff167f8be0079c531659141344cd1fd0a4f28419497f9722a3daafe3b4186f6b6457e060405160405180910390a35050565b600080fd5b600073ffffffffffffffffffffffffffffffffffffffff82169050919050565b60006200028c826200025f565b9050919050565b6200029e816200027f565b8114620002aa57600080fd5b50565b600081519050620002be8162000293565b92915050565b60008060408385031215620002de57620002dd6200025a565b5b6000620002ee85828601620002ad565b92505060206200030185828601620002ad565b9150509250929050565b6000819050919050565b7f4e487b7100000000000000000000000000000000000000000000000000000000600052601160045260246000fd5b600062000351826200030b565b91506200035e836200030b565b92508282026200036e816200030b565b9150828204841483151762000388576200038762000315565b5b5092915050565b7f4e487b7100000000000000000000000000000000000000000000000000000000600052601260045260246000fd5b6000620003cb826200030b565b9150620003d8836200030b565b925082620003eb57620003ea6200038f565b5b828204905092915050565b61250480620004066000396000f3fe608060405234801561001057600080fd5b50600436106101375760003560e01c80638da5cb5b116100b8578063cbdf382c1161007c578063cbdf382c14610308578063db0f53f914610326578063e21b91e314610330578063ed36b5b21461034e578063f2fde38b14610358578063ff65d0ea1461037457610137565b80638da5cb5b146102605780638f10369a1461027e578063952e68cf1461029c578063a0e99fcb146102b8578063a87430ba146102d657610137565b8063485cc955116100ff578063485cc955146101e05780635bf0fbd3146101fc5780635fcbd2851461021a5780636ffbdae414610238578063715018a61461025657610137565b806311961d581461013c57806329eb5f2c146101585780632e17de78146101765780633197cbb61461019257806331d7a262146101b0575b600080fd5b61015660048036038101906101519190611bf3565b610392565b005b6101606103c4565b60405161016d9190611c56565b60405180910390f35b610190600480360381019061018b9190611c71565b6103de565b005b61019a6107f4565b6040516101a79190611cbd565b60405180910390f35b6101ca60048036038101906101c59190611cd8565b61080a565b6040516101d79190611d14565b60405180910390f35b6101fa60048036038101906101f59190611d2f565b610a84565b005b610204610bee565b6040516102119190611d14565b60405180910390f35b610222610bf4565b60405161022f9190611d7e565b60405180910390f35b610240610c1a565b60405161024d9190611d14565b60405180910390f35b61025e610c20565b005b610268610c34565b6040516102759190611d7e565b60405180910390f35b610286610c5d565b6040516102939190611dcc565b60405180910390f35b6102b660048036038101906102b19190611e13565b610c87565b005b6102c06110c0565b6040516102cd9190611d14565b60405180910390f35b6102f060048036038101906102eb9190611cd8565b6110c6565b6040516102ff93929190611e7e565b60405180910390f35b610310611128565b60405161031d9190611d7e565b60405180910390f35b61032e61114e565b005b6103386112fe565b6040516103459190611d7e565b60405180910390f35b610356611324565b005b610372600480360381019061036d9190611cd8565b611480565b005b61037c611503565b6040516103899190611cbd565b60405180910390f35b6040517f289d896400000000000000000000000000000000000000000000000000000000815260040160405180910390fd5b600760009054906101000a900467ffffffffffffffff1681565b6000600c60003373ffffffffffffffffffffffffffffffffffffffff1673ffffffffffffffffffffffffffffffffffffffff1681526020019081526020016000209050600081600201838154811061043957610438611eb5565b5b9060005260206000200190508060000160179054906101000a900467ffffffffffffffff1667ffffffffffffffff164210156104a1576040517f46011bae00000000000000000000000000000000000000000000000000000000815260040160405180910390fd5b6000808260000160009054906101000a90046effffffffffffffffffffffffffffff1683600001601f9054906101000a900460ff16915091506104e333611519565b60006104ee846116d4565b9050600085600201878154811061050857610507611eb5565b5b90600052602060002001600080820160006101000a8154906effffffffffffffffffffffffffffff021916905560008201600f6101000a81549067ffffffffffffffff02191690556000820160176101000a81549067ffffffffffffffff021916905560008201601f6101000a81549060ff0219169055505080828760000160109054906101000a90046fffffffffffffffffffffffffffffffff166fffffffffffffffffffffffffffffffff166105c09190611f13565b6105ca9190611f47565b8660000160106101000a8154816fffffffffffffffffffffffffffffffff02191690836fffffffffffffffffffffffffffffffff16021790555080826009546106139190611f13565b61061d9190611f47565b600981905550836effffffffffffffffffffffffffffff16600660008282546106469190611f13565b9250508190555082156106f957600160009054906101000a900473ffffffffffffffffffffffffffffffffffffffff1673ffffffffffffffffffffffffffffffffffffffff1663a9059cbb33866040518363ffffffff1660e01b81526004016106b0929190611fd1565b6020604051808303816000875af11580156106cf573d6000803e3d6000fd5b505050506040513d601f19601f820116820180604052508101906106f39190612032565b5061079b565b600360009054906101000a900473ffffffffffffffffffffffffffffffffffffffff1673ffffffffffffffffffffffffffffffffffffffff1663a9059cbb33866040518363ffffffff1660e01b8152600401610756929190611fd1565b6020604051808303816000875af1158015610775573d6000803e3d6000fd5b505050506040513d601f19601f820116820180604052508101906107999190612032565b505b3373ffffffffffffffffffffffffffffffffffffffff167f2dad9020fc3cab73927d1f0192936d8dcbceac42333d75509d99c2c941339ccf88856040516107e392919061206e565b60405180910390a250505050505050565b600a601c9054906101000a900463ffffffff1681565b60008073ffffffffffffffffffffffffffffffffffffffff168273ffffffffffffffffffffffffffffffffffffffff1603610871576040517f6803935b00000000000000000000000000000000000000000000000000000000815260040160405180910390fd5b600080600c60008573ffffffffffffffffffffffffffffffffffffffff1673ffffffffffffffffffffffffffffffffffffffff1681526020019081526020016000209050600760009054906101000a900467ffffffffffffffff1667ffffffffffffffff16421180156108e75750600060095414155b156109f7576000600a601c9054906101000a900463ffffffff1663ffffffff16421161093e57600760009054906101000a900467ffffffffffffffff1667ffffffffffffffff16426109399190611f13565b610983565b600760009054906101000a900467ffffffffffffffff16600a601c9054906101000a900463ffffffff1663ffffffff166109789190612097565b67ffffffffffffffff165b90506000600a60009054906101000a900477ffffffffffffffffffffffffffffffffffffffffffffffff1677ffffffffffffffffffffffffffffffffffffffffffffffff16826109d391906120d3565b90506008546109e482600954611789565b6109ee9190611f47565b935050506109fd565b60085491505b8060000160009054906101000a90046fffffffffffffffffffffffffffffffff166fffffffffffffffffffffffffffffffff16610a718260000160109054906101000a90046fffffffffffffffffffffffffffffffff166fffffffffffffffffffffffffffffffff168484600101546117b3565b610a7b9190611f47565b92505050919050565b610a8c6117e9565b600b60009054906101000a900460ff1615610ad3576040517f1a98fc8100000000000000000000000000000000000000000000000000000000815260040160405180910390fd5b81600460006101000a81548173ffffffffffffffffffffffffffffffffffffffff021916908373ffffffffffffffffffffffffffffffffffffffff16021790555080600560006101000a81548173ffffffffffffffffffffffffffffffffffffffff021916908373ffffffffffffffffffffffffffffffffffffffff16021790555063095f6a0042610b659190611f47565b600a601c6101000a81548163ffffffff021916908363ffffffff16021790555042600a60186101000a81548163ffffffff021916908363ffffffff16021790555042600760006101000a81548167ffffffffffffffff021916908367ffffffffffffffff1602179055506001600b60006101000a81548160ff0219169083151502179055505050565b60085481565b600260009054906101000a900473ffffffffffffffffffffffffffffffffffffffff1681565b60095481565b610c286117e9565b610c326000611867565b565b60008060009054906101000a900473ffffffffffffffffffffffffffffffffffffffff16905090565b600a60009054906101000a900477ffffffffffffffffffffffffffffffffffffffffffffffff1681565b60008203610cc1576040517fe19a65fe00000000000000000000000000000000000000000000000000000000815260040160405180910390fd5b60018167ffffffffffffffff161080610ce7575063096601808167ffffffffffffffff16115b15610d1e576040517fac56ac5400000000000000000000000000000000000000000000000000000000815260040160405180910390fd5b6000600c60003373ffffffffffffffffffffffffffffffffffffffff1673ffffffffffffffffffffffffffffffffffffffff1681526020019081526020016000209050610d6a33611519565b60008242610d789190612115565b90506000620f42406309660180624c4b404285610d959190612097565b67ffffffffffffffff16610da991906120d3565b610db39190612180565b610dbd9190611f47565b905060008582610dcd91906120d3565b905060008111610de057610ddf6121b1565b5b60006040518060800160405280886effffffffffffffffffffffffffffff1681526020014267ffffffffffffffff1681526020018567ffffffffffffffff16815260200160001515815250905084600201819080600181540180825580915050600190039060005260206000200160009091909190915060008201518160000160006101000a8154816effffffffffffffffffffffffffffff02191690836effffffffffffffffffffffffffffff160217905550602082015181600001600f6101000a81548167ffffffffffffffff021916908367ffffffffffffffff16021790555060408201518160000160176101000a81548167ffffffffffffffff021916908367ffffffffffffffff160217905550606082015181600001601f6101000a81548160ff0219169083151502179055505050818560000160108282829054906101000a90046fffffffffffffffffffffffffffffffff16610f4391906121e0565b92506101000a8154816fffffffffffffffffffffffffffffffff02191690836fffffffffffffffffffffffffffffffff1602179055508160096000828254610f8b9190611f47565b925050819055508660066000828254610fa49190611f47565b92505081905550600160009054906101000a900473ffffffffffffffffffffffffffffffffffffffff1673ffffffffffffffffffffffffffffffffffffffff166323b872dd33308a6040518463ffffffff1660e01b815260040161100a93929190612224565b6020604051808303816000875af1158015611029573d6000803e3d6000fd5b505050506040513d601f19601f8201168201806040525081019061104d9190612032565b503373ffffffffffffffffffffffffffffffffffffffff167f7396fefe2cd6af2ed7e2f5e3115968438aac582eb6e5143e4fa009f190ec58576001876002018054905061109a9190611f13565b894288886040516110af95949392919061225b565b60405180910390a250505050505050565b60065481565b600c6020528060005260406000206000915090508060000160009054906101000a90046fffffffffffffffffffffffffffffffff16908060000160109054906101000a90046fffffffffffffffffffffffffffffffff16908060010154905083565b600360009054906101000a900473ffffffffffffffffffffffffffffffffffffffff1681565b6000600c60003373ffffffffffffffffffffffffffffffffffffffff1673ffffffffffffffffffffffffffffffffffffffff168152602001908152602001600020905061119a33611519565b60008160000160009054906101000a90046fffffffffffffffffffffffffffffffff166fffffffffffffffffffffffffffffffff169050600081036111e05750506112fc565b60008260000160006101000a8154816fffffffffffffffffffffffffffffffff02191690836fffffffffffffffffffffffffffffffff160217905550600460009054906101000a900473ffffffffffffffffffffffffffffffffffffffff1673ffffffffffffffffffffffffffffffffffffffff166311961d5833836040518363ffffffff1660e01b81526004016112799291906122ae565b600060405180830381600087803b15801561129357600080fd5b505af11580156112a7573d6000803e3d6000fd5b505050503373ffffffffffffffffffffffffffffffffffffffff167f6257531a949dcb8fa7034596782db5a55116ef92d67d5814eabb3426a3a016a9826040516112f19190611d14565b60405180910390a250505b565b600160009054906101000a900473ffffffffffffffffffffffffffffffffffffffff1681565b61132c61192b565b611362576040517fd348c96800000000000000000000000000000000000000000000000000000000815260040160405180910390fd5b60646065600a60009054906101000a900477ffffffffffffffffffffffffffffffffffffffffffffffff1661139791906122d7565b6113a19190612319565b600a60006101000a81548177ffffffffffffffffffffffffffffffffffffffffffffffff021916908377ffffffffffffffffffffffffffffffffffffffffffffffff16021790555042600a60186101000a81548163ffffffff021916908363ffffffff1602179055503373ffffffffffffffffffffffffffffffffffffffff167f6b0c79aba8ff3f5ede2d55cbbf057c3439ed153c0105945cbd9f112a0a9d0a36600a60009054906101000a900477ffffffffffffffffffffffffffffffffffffffffffffffff16604051611476919061237b565b60405180910390a2565b6114886117e9565b600073ffffffffffffffffffffffffffffffffffffffff168173ffffffffffffffffffffffffffffffffffffffff16036114f7576040517f08c379a00000000000000000000000000000000000000000000000000000000081526004016114ee90612419565b60405180910390fd5b61150081611867565b50565b600a60189054906101000a900463ffffffff1681565b600073ffffffffffffffffffffffffffffffffffffffff168173ffffffffffffffffffffffffffffffffffffffff160361157f576040517f6803935b00000000000000000000000000000000000000000000000000000000815260040160405180910390fd5b611587611986565b6000600c60008373ffffffffffffffffffffffffffffffffffffffff1673ffffffffffffffffffffffffffffffffffffffff1681526020019081526020016000209050600061160f8260000160109054906101000a90046fffffffffffffffffffffffffffffffff166fffffffffffffffffffffffffffffffff1660085484600101546117b3565b9050808260000160008282829054906101000a90046fffffffffffffffffffffffffffffffff1661164091906121e0565b92506101000a8154816fffffffffffffffffffffffffffffffff02191690836fffffffffffffffffffffffffffffffff16021790555060085482600101819055508273ffffffffffffffffffffffffffffffffffffffff167f6ecb3578d0246bd181c85826dc9504ede4ffd2973a363722efab3c3c7aef3cf6826040516116c79190611d14565b60405180910390a2505050565b60008160000160009054906101000a90046effffffffffffffffffffffffffffff166effffffffffffffffffffffffffffff16620f42406309660180624c4b4085600001600f9054906101000a900467ffffffffffffffff168660000160179054906101000a900467ffffffffffffffff166117509190612097565b67ffffffffffffffff1661176491906120d3565b61176e9190612180565b6117789190611f47565b61178291906120d3565b9050919050565b60008168056bc75e2d63100000846117a191906120d3565b6117ab9190612180565b905092915050565b600068056bc75e2d6310000082846117cb9190611f13565b856117d691906120d3565b6117e09190612180565b90509392505050565b6117f1611b52565b73ffffffffffffffffffffffffffffffffffffffff1661180f610c34565b73ffffffffffffffffffffffffffffffffffffffff1614611865576040517f08c379a000000000000000000000000000000000000000000000000000000000815260040161185c90612485565b60405180910390fd5b565b60008060009054906101000a900473ffffffffffffffffffffffffffffffffffffffff169050816000806101000a81548173ffffffffffffffffffffffffffffffffffffffff021916908373ffffffffffffffffffffffffffffffffffffffff1602179055508173ffffffffffffffffffffffffffffffffffffffff168173ffffffffffffffffffffffffffffffffffffffff167f8be0079c531659141344cd1fd0a4f28419497f9722a3daafe3b4186f6b6457e060405160405180910390a35050565b6000600a601c9054906101000a900463ffffffff1663ffffffff164211156119565760009050611983565b62093a80600a60189054906101000a900463ffffffff1663ffffffff1661197d9190611f47565b42101590505b90565b61198e61192b565b1561199c5761199b611324565b5b6000600954036119d45742600760006101000a81548167ffffffffffffffff021916908367ffffffffffffffff160217905550611b50565b6000600a601c9054906101000a900463ffffffff1663ffffffff1642116119fb5742611a15565b600a601c9054906101000a900463ffffffff1663ffffffff165b90506000600760009054906101000a900467ffffffffffffffff1667ffffffffffffffff1682611a459190611f13565b90506000600a60009054906101000a900477ffffffffffffffffffffffffffffffffffffffffffffffff1677ffffffffffffffffffffffffffffffffffffffffffffffff1682611a9591906120d3565b9050611aa381600954611789565b60086000828254611ab49190611f47565b9250508190555082600760006101000a81548167ffffffffffffffff021916908367ffffffffffffffff1602179055503373ffffffffffffffffffffffffffffffffffffffff167f50cd981a6fc3ae42b92c6fb6313984eea358c557449fe2c659db469578ea04a6600854600760009054906101000a900467ffffffffffffffff16604051611b449291906124a5565b60405180910390a25050505b565b600033905090565b600080fd5b600073ffffffffffffffffffffffffffffffffffffffff82169050919050565b6000611b8a82611b5f565b9050919050565b611b9a81611b7f565b8114611ba557600080fd5b50565b600081359050611bb781611b91565b92915050565b6000819050919050565b611bd081611bbd565b8114611bdb57600080fd5b50565b600081359050611bed81611bc7565b92915050565b60008060408385031215611c0a57611c09611b5a565b5b6000611c1885828601611ba8565b9250506020611c2985828601611bde565b9150509250929050565b600067ffffffffffffffff82169050919050565b611c5081611c33565b82525050565b6000602082019050611c6b6000830184611c47565b92915050565b600060208284031215611c8757611c86611b5a565b5b6000611c9584828501611bde565b91505092915050565b600063ffffffff82169050919050565b611cb781611c9e565b82525050565b6000602082019050611cd26000830184611cae565b92915050565b600060208284031215611cee57611ced611b5a565b5b6000611cfc84828501611ba8565b91505092915050565b611d0e81611bbd565b82525050565b6000602082019050611d296000830184611d05565b92915050565b60008060408385031215611d4657611d45611b5a565b5b6000611d5485828601611ba8565b9250506020611d6585828601611ba8565b9150509250929050565b611d7881611b7f565b82525050565b6000602082019050611d936000830184611d6f565b92915050565b600077ffffffffffffffffffffffffffffffffffffffffffffffff82169050919050565b611dc681611d99565b82525050565b6000602082019050611de16000830184611dbd565b92915050565b611df081611c33565b8114611dfb57600080fd5b50565b600081359050611e0d81611de7565b92915050565b60008060408385031215611e2a57611e29611b5a565b5b6000611e3885828601611bde565b9250506020611e4985828601611dfe565b9150509250929050565b60006fffffffffffffffffffffffffffffffff82169050919050565b611e7881611e53565b82525050565b6000606082019050611e936000830186611e6f565b611ea06020830185611e6f565b611ead6040830184611d05565b949350505050565b7f4e487b7100000000000000000000000000000000000000000000000000000000600052603260045260246000fd5b7f4e487b7100000000000000000000000000000000000000000000000000000000600052601160045260246000fd5b6000611f1e82611bbd565b9150611f2983611bbd565b9250828203905081811115611f4157611f40611ee4565b5b92915050565b6000611f5282611bbd565b9150611f5d83611bbd565b9250828201905080821115611f7557611f74611ee4565b5b92915050565b60006effffffffffffffffffffffffffffff82169050919050565b6000819050919050565b6000611fbb611fb6611fb184611f7b565b611f96565b611bbd565b9050919050565b611fcb81611fa0565b82525050565b6000604082019050611fe66000830185611d6f565b611ff36020830184611fc2565b9392505050565b60008115159050919050565b61200f81611ffa565b811461201a57600080fd5b50565b60008151905061202c81612006565b92915050565b60006020828403121561204857612047611b5a565b5b60006120568482850161201d565b91505092915050565b61206881611ffa565b82525050565b60006040820190506120836000830185611d05565b612090602083018461205f565b9392505050565b60006120a282611c33565b91506120ad83611c33565b9250828203905067ffffffffffffffff8111156120cd576120cc611ee4565b5b92915050565b60006120de82611bbd565b91506120e983611bbd565b92508282026120f781611bbd565b9150828204841483151761210e5761210d611ee4565b5b5092915050565b600061212082611c33565b915061212b83611c33565b9250828201905067ffffffffffffffff81111561214b5761214a611ee4565b5b92915050565b7f4e487b7100000000000000000000000000000000000000000000000000000000600052601260045260246000fd5b600061218b82611bbd565b915061219683611bbd565b9250826121a6576121a5612151565b5b828204905092915050565b7f4e487b7100000000000000000000000000000000000000000000000000000000600052600160045260246000fd5b60006121eb82611e53565b91506121f683611e53565b925082820190506fffffffffffffffffffffffffffffffff81111561221e5761221d611ee4565b5b92915050565b60006060820190506122396000830186611d6f565b6122466020830185611d6f565b6122536040830184611d05565b949350505050565b600060a0820190506122706000830188611d05565b61227d6020830187611d05565b61228a6040830186611d05565b6122976060830185611c47565b6122a46080830184611d05565b9695505050505050565b60006040820190506122c36000830185611d6f565b6122d06020830184611d05565b9392505050565b60006122e282611d99565b91506122ed83611d99565b92508282026122fb81611d99565b9150828204841483151761231257612311611ee4565b5b5092915050565b600061232482611d99565b915061232f83611d99565b92508261233f5761233e612151565b5b828204905092915050565b600061236561236061235b84611d99565b611f96565b611bbd565b9050919050565b6123758161234a565b82525050565b6000602082019050612390600083018461236c565b92915050565b600082825260208201905092915050565b7f4f776e61626c653a206e6577206f776e657220697320746865207a65726f206160008201527f6464726573730000000000000000000000000000000000000000000000000000602082015250565b6000612403602683612396565b915061240e826123a7565b604082019050919050565b60006020820190508181036000830152612432816123f6565b9050919050565b7f4f776e61626c653a2063616c6c6572206973206e6f7420746865206f776e6572600082015250565b600061246f602083612396565b915061247a82612439565b602082019050919050565b6000602082019050818103600083015261249e81612462565b9050919050565b60006040820190506124ba6000830185611d05565b6124c76020830184611c47565b939250505056fea2646970667358221220f44e43853eaa16a4a7a21b57ae6ab6ec1266893e121303fbd67ce7b1303cc88164736f6c63430008120033",
  "linkReferences": {},
  "deployedLinkReferences": {}
}