{
  "_format": "hh-sol-artifact-1",
  "contractName": "SnowfallPool",
  "sourceName": "contracts/SnowFallPool.sol",
  "abi": [
    {
      "inputs": [
        {
          "internalType": "address",
          "name": "_snowToken",
          "type": "address"
        },
        {
          "internalType": "address",
          "name": "_lpToken",
          "type": "address"
        }
      ],
      "stateMutability": "nonpayable",
      "type": "constructor"
    },
    {
      "inputs": [],
      "name": "CorePool__AlreadyInitialized",
      "type": "error"
    },
    {
      "inputs": [],
      "name": "CorePool__CannotUpdateRewardRatioYet",
      "type": "error"
    },
    {
      "inputs": [],
      "name": "CorePool__InvalidLockPeriod",
      "type": "error"
    },
    {
      "inputs": [],
      "name": "CorePool__InvalidStakerAddress",
      "type": "error"
    },
    {
      "inputs": [],
      "name": "CorePool__NotFromLPPool",
      "type": "error"
    },
    {
      "inputs": [],
      "name": "CorePool__NotUnlockedYet",
      "type": "error"
    },
    {
      "inputs": [],
      "name": "CorePool__ValueCannotBeZero",
      "type": "error"
    },
    {
      "anonymous": false,
      "inputs": [
        {
          "indexed": true,
          "internalType": "address",
          "name": "account",
          "type": "address"
        },
        {
          "indexed": false,
          "internalType": "uint256",
          "name": "value",
          "type": "uint256"
        }
      ],
      "name": "ClaimYieldRewards",
      "type": "event"
    },
    {
      "anonymous": false,
      "inputs": [
        {
          "indexed": true,
          "internalType": "address",
          "name": "previousOwner",
          "type": "address"
        },
        {
          "indexed": true,
          "internalType": "address",
          "name": "newOwner",
          "type": "address"
        }
      ],
      "name": "OwnershipTransferred",
      "type": "event"
    },
    {
      "anonymous": false,
      "inputs": [
        {
          "indexed": true,
          "internalType": "address",
          "name": "account",
          "type": "address"
        },
        {
          "indexed": false,
          "internalType": "uint256",
          "name": "stakeId",
          "type": "uint256"
        },
        {
          "indexed": false,
          "internalType": "uint256",
          "name": "value",
          "type": "uint256"
        },
        {
          "indexed": false,
          "internalType": "uint256",
          "name": "stakeTime",
          "type": "uint256"
        },
        {
          "indexed": false,
          "internalType": "uint64",
          "name": "lockedUntil",
          "type": "uint64"
        },
        {
          "indexed": false,
          "internalType": "uint256",
          "name": "stakeWeight",
          "type": "uint256"
        }
      ],
      "name": "Staked",
      "type": "event"
    },
    {
      "anonymous": false,
      "inputs": [
        {
          "indexed": true,
          "internalType": "address",
          "name": "by",
          "type": "address"
        },
        {
          "indexed": false,
          "internalType": "uint256",
          "name": "yieldRewardsPerShare",
          "type": "uint256"
        },
        {
          "indexed": false,
          "internalType": "uint64",
          "name": "lastYieldDistribution",
          "type": "uint64"
        }
      ],
      "name": "Synced",
      "type": "event"
    },
    {
      "anonymous": false,
      "inputs": [
        {
          "indexed": true,
          "internalType": "address",
          "name": "account",
          "type": "address"
        },
        {
          "indexed": false,
          "internalType": "uint256",
          "name": "stakeId",
          "type": "uint256"
        },
        {
          "indexed": false,
          "internalType": "bool",
          "name": "isYield",
          "type": "bool"
        }
      ],
      "name": "Unstake",
      "type": "event"
    },
    {
      "anonymous": false,
      "inputs": [
        {
          "indexed": true,
          "internalType": "address",
          "name": "by",
          "type": "address"
        },
        {
          "indexed": false,
          "internalType": "uint256",
          "name": "newRewardPerSecond",
          "type": "uint256"
        }
      ],
      "name": "UpdateRewardPerSecond",
      "type": "event"
    },
    {
      "anonymous": false,
      "inputs": [
        {
          "indexed": true,
          "internalType": "address",
          "name": "account",
          "type": "address"
        },
        {
          "indexed": false,
          "internalType": "uint256",
          "name": "yieldValue",
          "type": "uint256"
        }
      ],
      "name": "UpdateRewards",
      "type": "event"
    },
    {
      "inputs": [],
      "name": "claimYieldRewards",
      "outputs": [],
      "stateMutability": "nonpayable",
      "type": "function"
    },
    {
      "inputs": [],
      "name": "endTime",
      "outputs": [
        {
          "internalType": "uint32",
          "name": "",
          "type": "uint32"
        }
      ],
      "stateMutability": "view",
      "type": "function"
    },
    {
      "inputs": [
        {
          "internalType": "address",
          "name": "_singlePoolAddress",
          "type": "address"
        },
        {
          "internalType": "address",
          "name": "_lpPoolAddress",
          "type": "address"
        }
      ],
      "name": "initialize",
      "outputs": [],
      "stateMutability": "nonpayable",
      "type": "function"
    },
    {
      "inputs": [],
      "name": "lastRewardPerSecUpdate",
      "outputs": [
        {
          "internalType": "uint32",
          "name": "",
          "type": "uint32"
        }
      ],
      "stateMutability": "view",
      "type": "function"
    },
    {
      "inputs": [],
      "name": "lastYieldDistribution",
      "outputs": [
        {
          "internalType": "uint64",
          "name": "",
          "type": "uint64"
        }
      ],
      "stateMutability": "view",
      "type": "function"
    },
    {
      "inputs": [],
      "name": "lpToken",
      "outputs": [
        {
          "internalType": "address",
          "name": "",
          "type": "address"
        }
      ],
      "stateMutability": "view",
      "type": "function"
    },
    {
      "inputs": [],
      "name": "owner",
      "outputs": [
        {
          "internalType": "address",
          "name": "",
          "type": "address"
        }
      ],
      "stateMutability": "view",
      "type": "function"
    },
    {
      "inputs": [
        {
          "internalType": "address",
          "name": "_staker",
          "type": "address"
        }
      ],
      "name": "pendingRewards",
      "outputs": [
        {
          "internalType": "uint256",
          "name": "",
          "type": "uint256"
        }
      ],
      "stateMutability": "view",
      "type": "function"
    },
    {
      "inputs": [],
      "name": "poolToken",
      "outputs": [
        {
          "internalType": "address",
          "name": "",
          "type": "address"
        }
      ],
      "stateMutability": "view",
      "type": "function"
    },
    {
      "inputs": [],
      "name": "renounceOwnership",
      "outputs": [],
      "stateMutability": "nonpayable",
      "type": "function"
    },
    {
      "inputs": [],
      "name": "rewardPerSecond",
      "outputs": [
        {
          "internalType": "uint192",
          "name": "",
          "type": "uint192"
        }
      ],
      "stateMutability": "view",
      "type": "function"
    },
    {
      "inputs": [],
      "name": "snowToken",
      "outputs": [
        {
          "internalType": "address",
          "name": "",
          "type": "address"
        }
      ],
      "stateMutability": "view",
      "type": "function"
    },
    {
      "inputs": [
        {
          "internalType": "uint256",
          "name": "_value",
          "type": "uint256"
        },
        {
          "internalType": "uint64",
          "name": "_lockDuration",
          "type": "uint64"
        }
      ],
      "name": "stake",
      "outputs": [],
      "stateMutability": "nonpayable",
      "type": "function"
    },
    {
      "inputs": [
        {
          "internalType": "address",
          "name": "_staker",
          "type": "address"
        },
        {
          "internalType": "uint256",
          "name": "_value",
          "type": "uint256"
        }
      ],
      "name": "stakeFromLPPool",
      "outputs": [],
      "stateMutability": "nonpayable",
      "type": "function"
    },
    {
      "inputs": [],
      "name": "totalPoolWeightedShares",
      "outputs": [
        {
          "internalType": "uint256",
          "name": "",
          "type": "uint256"
        }
      ],
      "stateMutability": "view",
      "type": "function"
    },
    {
      "inputs": [],
      "name": "totalTokensInPool",
      "outputs": [
        {
          "internalType": "uint256",
          "name": "",
          "type": "uint256"
        }
      ],
      "stateMutability": "view",
      "type": "function"
    },
    {
      "inputs": [
        {
          "internalType": "address",
          "name": "newOwner",
          "type": "address"
        }
      ],
      "name": "transferOwnership",
      "outputs": [],
      "stateMutability": "nonpayable",
      "type": "function"
    },
    {
      "inputs": [
        {
          "internalType": "uint256",
          "name": "_stakeId",
          "type": "uint256"
        }
      ],
      "name": "unstake",
      "outputs": [],
      "stateMutability": "nonpayable",
      "type": "function"
    },
    {
      "inputs": [],
      "name": "updateRewardPerSecond",
      "outputs": [],
      "stateMutability": "nonpayable",
      "type": "function"
    },
    {
      "inputs": [
        {
          "internalType": "address",
          "name": "",
          "type": "address"
        }
      ],
      "name": "users",
      "outputs": [
        {
          "internalType": "uint128",
          "name": "pendingYield",
          "type": "uint128"
        },
        {
          "internalType": "uint128",
          "name": "totalWeightedShares",
          "type": "uint128"
        },
        {
          "internalType": "uint256",
          "name": "yieldRewardsPerSharePaid",
          "type": "uint256"
        }
      ],
      "stateMutability": "view",
      "type": "function"
    },
    {
      "inputs": [],
      "name": "yieldRewardsPerShare",
      "outputs": [
        {
          "internalType": "uint256",
          "name": "",
          "type": "uint256"
        }
      ],
      "stateMutability": "view",
      "type": "function"
    }
  ],
  "bytecode": "0x60806040523480156200001157600080fd5b5060405162002edf38038062002edf8339818101604052810190620000379190620002b6565b620000576200004b6200018060201b60201c565b6200018860201b60201c565b81600160006101000a81548173ffffffffffffffffffffffffffffffffffffffff021916908373ffffffffffffffffffffffffffffffffffffffff16021790555080600260006101000a81548173ffffffffffffffffffffffffffffffffffffffff021916908373ffffffffffffffffffffffffffffffffffffffff16021790555081600360006101000a81548173ffffffffffffffffffffffffffffffffffffffff021916908373ffffffffffffffffffffffffffffffffffffffff160217905550600a668c542371092ffc62000130919062000336565b600a60006101000a81548177ffffffffffffffffffffffffffffffffffffffffffffffff021916908377ffffffffffffffffffffffffffffffffffffffffffffffff16021790555050506200036e565b600033905090565b60008060009054906101000a900473ffffffffffffffffffffffffffffffffffffffff169050816000806101000a81548173ffffffffffffffffffffffffffffffffffffffff021916908373ffffffffffffffffffffffffffffffffffffffff1602179055508173ffffffffffffffffffffffffffffffffffffffff168173ffffffffffffffffffffffffffffffffffffffff167f8be0079c531659141344cd1fd0a4f28419497f9722a3daafe3b4186f6b6457e060405160405180910390a35050565b600080fd5b600073ffffffffffffffffffffffffffffffffffffffff82169050919050565b60006200027e8262000251565b9050919050565b620002908162000271565b81146200029c57600080fd5b50565b600081519050620002b08162000285565b92915050565b60008060408385031215620002d057620002cf6200024c565b5b6000620002e0858286016200029f565b9250506020620002f3858286016200029f565b9150509250929050565b6000819050919050565b7f4e487b7100000000000000000000000000000000000000000000000000000000600052601260045260246000fd5b60006200034382620002fd565b91506200035083620002fd565b92508262000363576200036262000307565b5b828204905092915050565b612b61806200037e6000396000f3fe608060405234801561001057600080fd5b50600436106101375760003560e01c80638da5cb5b116100b8578063cbdf382c1161007c578063cbdf382c14610308578063db0f53f914610326578063e21b91e314610330578063ed36b5b21461034e578063f2fde38b14610358578063ff65d0ea1461037457610137565b80638da5cb5b146102605780638f10369a1461027e578063952e68cf1461029c578063a0e99fcb146102b8578063a87430ba146102d657610137565b8063485cc955116100ff578063485cc955146101e05780635bf0fbd3146101fc5780635fcbd2851461021a5780636ffbdae414610238578063715018a61461025657610137565b806311961d581461013c57806329eb5f2c146101585780632e17de78146101765780633197cbb61461019257806331d7a262146101b0575b600080fd5b61015660048036038101906101519190612250565b610392565b005b6101606107c0565b60405161016d91906122b3565b60405180910390f35b610190600480360381019061018b91906122ce565b6107da565b005b61019a610bf0565b6040516101a7919061231a565b60405180910390f35b6101ca60048036038101906101c59190612335565b610c06565b6040516101d79190612371565b60405180910390f35b6101fa60048036038101906101f5919061238c565b610e80565b005b610204610fea565b6040516102119190612371565b60405180910390f35b610222610ff0565b60405161022f91906123db565b60405180910390f35b610240611016565b60405161024d9190612371565b60405180910390f35b61025e61101c565b005b610268611030565b60405161027591906123db565b60405180910390f35b610286611059565b6040516102939190612429565b60405180910390f35b6102b660048036038101906102b19190612470565b611083565b005b6102c06114bc565b6040516102cd9190612371565b60405180910390f35b6102f060048036038101906102eb9190612335565b6114c2565b6040516102ff939291906124db565b60405180910390f35b610310611524565b60405161031d91906123db565b60405180910390f35b61032e61154a565b005b61033861195b565b60405161034591906123db565b60405180910390f35b610356611981565b005b610372600480360381019061036d9190612335565b611add565b005b61037c611b60565b604051610389919061231a565b60405180910390f35b600073ffffffffffffffffffffffffffffffffffffffff168273ffffffffffffffffffffffffffffffffffffffff16036103f8576040517f6803935b00000000000000000000000000000000000000000000000000000000815260040160405180910390fd5b600560009054906101000a900473ffffffffffffffffffffffffffffffffffffffff1673ffffffffffffffffffffffffffffffffffffffff163373ffffffffffffffffffffffffffffffffffffffff161461047f576040517f5871aa0d00000000000000000000000000000000000000000000000000000000815260040160405180910390fd5b6000600c60008473ffffffffffffffffffffffffffffffffffffffff1673ffffffffffffffffffffffffffffffffffffffff16815260200190815260200160002090506104cb83611b76565b6000621e8480836104dc9190612541565b905060006301e13380426104f09190612583565b905060006040518060800160405280866effffffffffffffffffffffffffffff1681526020014267ffffffffffffffff1681526020018367ffffffffffffffff168152602001600115158152509050828460000160108282829054906101000a90046fffffffffffffffffffffffffffffffff1661056e91906125b7565b92506101000a8154816fffffffffffffffffffffffffffffffff02191690836fffffffffffffffffffffffffffffffff16021790555083600201819080600181540180825580915050600190039060005260206000200160009091909190915060008201518160000160006101000a8154816effffffffffffffffffffffffffffff02191690836effffffffffffffffffffffffffffff160217905550602082015181600001600f6101000a81548167ffffffffffffffff021916908367ffffffffffffffff16021790555060408201518160000160176101000a81548167ffffffffffffffff021916908367ffffffffffffffff160217905550606082015181600001601f6101000a81548160ff0219169083151502179055505050826009600082825461069d9190612583565b9250508190555084600660008282546106b69190612583565b92505081905550600160009054906101000a900473ffffffffffffffffffffffffffffffffffffffff1673ffffffffffffffffffffffffffffffffffffffff166340c10f1930876040518363ffffffff1660e01b815260040161071a9291906125fb565b600060405180830381600087803b15801561073457600080fd5b505af1158015610748573d6000803e3d6000fd5b505050508573ffffffffffffffffffffffffffffffffffffffff167f7396fefe2cd6af2ed7e2f5e3115968438aac582eb6e5143e4fa009f190ec5857600186600201805490506107989190612624565b874286621e84806040516107b0959493929190612658565b60405180910390a2505050505050565b600760009054906101000a900467ffffffffffffffff1681565b6000600c60003373ffffffffffffffffffffffffffffffffffffffff1673ffffffffffffffffffffffffffffffffffffffff16815260200190815260200160002090506000816002018381548110610835576108346126ab565b5b9060005260206000200190508060000160179054906101000a900467ffffffffffffffff1667ffffffffffffffff1642101561089d576040517f46011bae00000000000000000000000000000000000000000000000000000000815260040160405180910390fd5b6000808260000160009054906101000a90046effffffffffffffffffffffffffffff1683600001601f9054906101000a900460ff16915091506108df33611b76565b60006108ea84611d31565b90506000856002018781548110610904576109036126ab565b5b90600052602060002001600080820160006101000a8154906effffffffffffffffffffffffffffff021916905560008201600f6101000a81549067ffffffffffffffff02191690556000820160176101000a81549067ffffffffffffffff021916905560008201601f6101000a81549060ff0219169055505080828760000160109054906101000a90046fffffffffffffffffffffffffffffffff166fffffffffffffffffffffffffffffffff166109bc9190612624565b6109c69190612583565b8660000160106101000a8154816fffffffffffffffffffffffffffffffff02191690836fffffffffffffffffffffffffffffffff1602179055508082600954610a0f9190612624565b610a199190612583565b600981905550836effffffffffffffffffffffffffffff1660066000828254610a429190612624565b925050819055508215610af557600160009054906101000a900473ffffffffffffffffffffffffffffffffffffffff1673ffffffffffffffffffffffffffffffffffffffff1663a9059cbb33866040518363ffffffff1660e01b8152600401610aac929190612730565b6020604051808303816000875af1158015610acb573d6000803e3d6000fd5b505050506040513d601f19601f82011682018060405250810190610aef9190612791565b50610b97565b600360009054906101000a900473ffffffffffffffffffffffffffffffffffffffff1673ffffffffffffffffffffffffffffffffffffffff1663a9059cbb33866040518363ffffffff1660e01b8152600401610b52929190612730565b6020604051808303816000875af1158015610b71573d6000803e3d6000fd5b505050506040513d601f19601f82011682018060405250810190610b959190612791565b505b3373ffffffffffffffffffffffffffffffffffffffff167f2dad9020fc3cab73927d1f0192936d8dcbceac42333d75509d99c2c941339ccf8885604051610bdf9291906127cd565b60405180910390a250505050505050565b600a601c9054906101000a900463ffffffff1681565b60008073ffffffffffffffffffffffffffffffffffffffff168273ffffffffffffffffffffffffffffffffffffffff1603610c6d576040517f6803935b00000000000000000000000000000000000000000000000000000000815260040160405180910390fd5b600080600c60008573ffffffffffffffffffffffffffffffffffffffff1673ffffffffffffffffffffffffffffffffffffffff1681526020019081526020016000209050600760009054906101000a900467ffffffffffffffff1667ffffffffffffffff1642118015610ce35750600060095414155b15610df3576000600a601c9054906101000a900463ffffffff1663ffffffff164211610d3a57600760009054906101000a900467ffffffffffffffff1667ffffffffffffffff1642610d359190612624565b610d7f565b600760009054906101000a900467ffffffffffffffff16600a601c9054906101000a900463ffffffff1663ffffffff16610d7491906127f6565b67ffffffffffffffff165b90506000600a60009054906101000a900477ffffffffffffffffffffffffffffffffffffffffffffffff1677ffffffffffffffffffffffffffffffffffffffffffffffff1682610dcf9190612541565b9050600854610de082600954611de6565b610dea9190612583565b93505050610df9565b60085491505b8060000160009054906101000a90046fffffffffffffffffffffffffffffffff166fffffffffffffffffffffffffffffffff16610e6d8260000160109054906101000a90046fffffffffffffffffffffffffffffffff166fffffffffffffffffffffffffffffffff16848460010154611e10565b610e779190612583565b92505050919050565b610e88611e46565b600b60009054906101000a900460ff1615610ecf576040517f1a98fc8100000000000000000000000000000000000000000000000000000000815260040160405180910390fd5b81600460006101000a81548173ffffffffffffffffffffffffffffffffffffffff021916908373ffffffffffffffffffffffffffffffffffffffff16021790555080600560006101000a81548173ffffffffffffffffffffffffffffffffffffffff021916908373ffffffffffffffffffffffffffffffffffffffff16021790555063095f6a0042610f619190612583565b600a601c6101000a81548163ffffffff021916908363ffffffff16021790555042600a60186101000a81548163ffffffff021916908363ffffffff16021790555042600760006101000a81548167ffffffffffffffff021916908367ffffffffffffffff1602179055506001600b60006101000a81548160ff0219169083151502179055505050565b60085481565b600260009054906101000a900473ffffffffffffffffffffffffffffffffffffffff1681565b60095481565b611024611e46565b61102e6000611ec4565b565b60008060009054906101000a900473ffffffffffffffffffffffffffffffffffffffff16905090565b600a60009054906101000a900477ffffffffffffffffffffffffffffffffffffffffffffffff1681565b600082036110bd576040517fe19a65fe00000000000000000000000000000000000000000000000000000000815260040160405180910390fd5b60008167ffffffffffffffff1610806110e3575063096601808167ffffffffffffffff16115b1561111a576040517fac56ac5400000000000000000000000000000000000000000000000000000000815260040160405180910390fd5b6000600c60003373ffffffffffffffffffffffffffffffffffffffff1673ffffffffffffffffffffffffffffffffffffffff168152602001908152602001600020905061116633611b76565b600082426111749190612832565b90506000620f42406309660180624c4b40428561119191906127f6565b67ffffffffffffffff166111a59190612541565b6111af919061289d565b6111b99190612583565b9050600085826111c99190612541565b9050600081116111dc576111db6128ce565b5b60006040518060800160405280886effffffffffffffffffffffffffffff1681526020014267ffffffffffffffff1681526020018567ffffffffffffffff16815260200160001515815250905084600201819080600181540180825580915050600190039060005260206000200160009091909190915060008201518160000160006101000a8154816effffffffffffffffffffffffffffff02191690836effffffffffffffffffffffffffffff160217905550602082015181600001600f6101000a81548167ffffffffffffffff021916908367ffffffffffffffff16021790555060408201518160000160176101000a81548167ffffffffffffffff021916908367ffffffffffffffff160217905550606082015181600001601f6101000a81548160ff0219169083151502179055505050818560000160108282829054906101000a90046fffffffffffffffffffffffffffffffff1661133f91906125b7565b92506101000a8154816fffffffffffffffffffffffffffffffff02191690836fffffffffffffffffffffffffffffffff16021790555081600960008282546113879190612583565b9250508190555086600660008282546113a09190612583565b92505081905550600160009054906101000a900473ffffffffffffffffffffffffffffffffffffffff1673ffffffffffffffffffffffffffffffffffffffff166323b872dd33308a6040518463ffffffff1660e01b8152600401611406939291906128fd565b6020604051808303816000875af1158015611425573d6000803e3d6000fd5b505050506040513d601f19601f820116820180604052508101906114499190612791565b503373ffffffffffffffffffffffffffffffffffffffff167f7396fefe2cd6af2ed7e2f5e3115968438aac582eb6e5143e4fa009f190ec5857600187600201805490506114969190612624565b894288886040516114ab959493929190612658565b60405180910390a250505050505050565b60065481565b600c6020528060005260406000206000915090508060000160009054906101000a90046fffffffffffffffffffffffffffffffff16908060000160109054906101000a90046fffffffffffffffffffffffffffffffff16908060010154905083565b600360009054906101000a900473ffffffffffffffffffffffffffffffffffffffff1681565b6000600c60003373ffffffffffffffffffffffffffffffffffffffff1673ffffffffffffffffffffffffffffffffffffffff168152602001908152602001600020905061159633611b76565b60008160000160009054906101000a90046fffffffffffffffffffffffffffffffff166fffffffffffffffffffffffffffffffff169050600081036115dc575050611959565b60008260000160006101000a8154816fffffffffffffffffffffffffffffffff02191690836fffffffffffffffffffffffffffffffff1602179055506000621e8480826116299190612541565b905060006301e133804261163d9190612583565b905060006040518060800160405280856effffffffffffffffffffffffffffff1681526020014267ffffffffffffffff1681526020018367ffffffffffffffff16815260200160011515815250905084600201819080600181540180825580915050600190039060005260206000200160009091909190915060008201518160000160006101000a8154816effffffffffffffffffffffffffffff02191690836effffffffffffffffffffffffffffff160217905550602082015181600001600f6101000a81548167ffffffffffffffff021916908367ffffffffffffffff16021790555060408201518160000160176101000a81548167ffffffffffffffff021916908367ffffffffffffffff160217905550606082015181600001601f6101000a81548160ff0219169083151502179055505050828560000160108282829054906101000a90046fffffffffffffffffffffffffffffffff166117a291906125b7565b92506101000a8154816fffffffffffffffffffffffffffffffff02191690836fffffffffffffffffffffffffffffffff16021790555082600960008282546117ea9190612583565b9250508190555083600660008282546118039190612583565b92505081905550600160009054906101000a900473ffffffffffffffffffffffffffffffffffffffff1673ffffffffffffffffffffffffffffffffffffffff166340c10f1930866040518363ffffffff1660e01b81526004016118679291906125fb565b600060405180830381600087803b15801561188157600080fd5b505af1158015611895573d6000803e3d6000fd5b505050503373ffffffffffffffffffffffffffffffffffffffff167f6257531a949dcb8fa7034596782db5a55116ef92d67d5814eabb3426a3a016a9856040516118df9190612371565b60405180910390a23373ffffffffffffffffffffffffffffffffffffffff167f7396fefe2cd6af2ed7e2f5e3115968438aac582eb6e5143e4fa009f190ec5857600187600201805490506119339190612624565b864286621e848060405161194b959493929190612658565b60405180910390a250505050505b565b600160009054906101000a900473ffffffffffffffffffffffffffffffffffffffff1681565b611989611f88565b6119bf576040517fd348c96800000000000000000000000000000000000000000000000000000000815260040160405180910390fd5b60646065600a60009054906101000a900477ffffffffffffffffffffffffffffffffffffffffffffffff166119f49190612934565b6119fe9190612976565b600a60006101000a81548177ffffffffffffffffffffffffffffffffffffffffffffffff021916908377ffffffffffffffffffffffffffffffffffffffffffffffff16021790555042600a60186101000a81548163ffffffff021916908363ffffffff1602179055503373ffffffffffffffffffffffffffffffffffffffff167f6b0c79aba8ff3f5ede2d55cbbf057c3439ed153c0105945cbd9f112a0a9d0a36600a60009054906101000a900477ffffffffffffffffffffffffffffffffffffffffffffffff16604051611ad391906129d8565b60405180910390a2565b611ae5611e46565b600073ffffffffffffffffffffffffffffffffffffffff168173ffffffffffffffffffffffffffffffffffffffff1603611b54576040517f08c379a0000000000000000000000000000000000000000000000000000000008152600401611b4b90612a76565b60405180910390fd5b611b5d81611ec4565b50565b600a60189054906101000a900463ffffffff1681565b600073ffffffffffffffffffffffffffffffffffffffff168173ffffffffffffffffffffffffffffffffffffffff1603611bdc576040517f6803935b00000000000000000000000000000000000000000000000000000000815260040160405180910390fd5b611be4611fe3565b6000600c60008373ffffffffffffffffffffffffffffffffffffffff1673ffffffffffffffffffffffffffffffffffffffff16815260200190815260200160002090506000611c6c8260000160109054906101000a90046fffffffffffffffffffffffffffffffff166fffffffffffffffffffffffffffffffff166008548460010154611e10565b9050808260000160008282829054906101000a90046fffffffffffffffffffffffffffffffff16611c9d91906125b7565b92506101000a8154816fffffffffffffffffffffffffffffffff02191690836fffffffffffffffffffffffffffffffff16021790555060085482600101819055508273ffffffffffffffffffffffffffffffffffffffff167f6ecb3578d0246bd181c85826dc9504ede4ffd2973a363722efab3c3c7aef3cf682604051611d249190612371565b60405180910390a2505050565b60008160000160009054906101000a90046effffffffffffffffffffffffffffff166effffffffffffffffffffffffffffff16620f42406309660180624c4b4085600001600f9054906101000a900467ffffffffffffffff168660000160179054906101000a900467ffffffffffffffff16611dad91906127f6565b67ffffffffffffffff16611dc19190612541565b611dcb919061289d565b611dd59190612583565b611ddf9190612541565b9050919050565b60008168056bc75e2d6310000084611dfe9190612541565b611e08919061289d565b905092915050565b600068056bc75e2d631000008284611e289190612624565b85611e339190612541565b611e3d919061289d565b90509392505050565b611e4e6121af565b73ffffffffffffffffffffffffffffffffffffffff16611e6c611030565b73ffffffffffffffffffffffffffffffffffffffff1614611ec2576040517f08c379a0000000000000000000000000000000000000000000000000000000008152600401611eb990612ae2565b60405180910390fd5b565b60008060009054906101000a900473ffffffffffffffffffffffffffffffffffffffff169050816000806101000a81548173ffffffffffffffffffffffffffffffffffffffff021916908373ffffffffffffffffffffffffffffffffffffffff1602179055508173ffffffffffffffffffffffffffffffffffffffff168173ffffffffffffffffffffffffffffffffffffffff167f8be0079c531659141344cd1fd0a4f28419497f9722a3daafe3b4186f6b6457e060405160405180910390a35050565b6000600a601c9054906101000a900463ffffffff1663ffffffff16421115611fb35760009050611fe0565b62093a80600a60189054906101000a900463ffffffff1663ffffffff16611fda9190612583565b42101590505b90565b611feb611f88565b15611ff957611ff8611981565b5b6000600954036120315742600760006101000a81548167ffffffffffffffff021916908367ffffffffffffffff1602179055506121ad565b6000600a601c9054906101000a900463ffffffff1663ffffffff1642116120585742612072565b600a601c9054906101000a900463ffffffff1663ffffffff165b90506000600760009054906101000a900467ffffffffffffffff1667ffffffffffffffff16826120a29190612624565b90506000600a60009054906101000a900477ffffffffffffffffffffffffffffffffffffffffffffffff1677ffffffffffffffffffffffffffffffffffffffffffffffff16826120f29190612541565b905061210081600954611de6565b600860008282546121119190612583565b9250508190555082600760006101000a81548167ffffffffffffffff021916908367ffffffffffffffff1602179055503373ffffffffffffffffffffffffffffffffffffffff167f50cd981a6fc3ae42b92c6fb6313984eea358c557449fe2c659db469578ea04a6600854600760009054906101000a900467ffffffffffffffff166040516121a1929190612b02565b60405180910390a25050505b565b600033905090565b600080fd5b600073ffffffffffffffffffffffffffffffffffffffff82169050919050565b60006121e7826121bc565b9050919050565b6121f7816121dc565b811461220257600080fd5b50565b600081359050612214816121ee565b92915050565b6000819050919050565b61222d8161221a565b811461223857600080fd5b50565b60008135905061224a81612224565b92915050565b60008060408385031215612267576122666121b7565b5b600061227585828601612205565b92505060206122868582860161223b565b9150509250929050565b600067ffffffffffffffff82169050919050565b6122ad81612290565b82525050565b60006020820190506122c860008301846122a4565b92915050565b6000602082840312156122e4576122e36121b7565b5b60006122f28482850161223b565b91505092915050565b600063ffffffff82169050919050565b612314816122fb565b82525050565b600060208201905061232f600083018461230b565b92915050565b60006020828403121561234b5761234a6121b7565b5b600061235984828501612205565b91505092915050565b61236b8161221a565b82525050565b60006020820190506123866000830184612362565b92915050565b600080604083850312156123a3576123a26121b7565b5b60006123b185828601612205565b92505060206123c285828601612205565b9150509250929050565b6123d5816121dc565b82525050565b60006020820190506123f060008301846123cc565b92915050565b600077ffffffffffffffffffffffffffffffffffffffffffffffff82169050919050565b612423816123f6565b82525050565b600060208201905061243e600083018461241a565b92915050565b61244d81612290565b811461245857600080fd5b50565b60008135905061246a81612444565b92915050565b60008060408385031215612487576124866121b7565b5b60006124958582860161223b565b92505060206124a68582860161245b565b9150509250929050565b60006fffffffffffffffffffffffffffffffff82169050919050565b6124d5816124b0565b82525050565b60006060820190506124f060008301866124cc565b6124fd60208301856124cc565b61250a6040830184612362565b949350505050565b7f4e487b7100000000000000000000000000000000000000000000000000000000600052601160045260246000fd5b600061254c8261221a565b91506125578361221a565b92508282026125658161221a565b9150828204841483151761257c5761257b612512565b5b5092915050565b600061258e8261221a565b91506125998361221a565b92508282019050808211156125b1576125b0612512565b5b92915050565b60006125c2826124b0565b91506125cd836124b0565b925082820190506fffffffffffffffffffffffffffffffff8111156125f5576125f4612512565b5b92915050565b600060408201905061261060008301856123cc565b61261d6020830184612362565b9392505050565b600061262f8261221a565b915061263a8361221a565b925082820390508181111561265257612651612512565b5b92915050565b600060a08201905061266d6000830188612362565b61267a6020830187612362565b6126876040830186612362565b61269460608301856122a4565b6126a16080830184612362565b9695505050505050565b7f4e487b7100000000000000000000000000000000000000000000000000000000600052603260045260246000fd5b60006effffffffffffffffffffffffffffff82169050919050565b6000819050919050565b600061271a612715612710846126da565b6126f5565b61221a565b9050919050565b61272a816126ff565b82525050565b600060408201905061274560008301856123cc565b6127526020830184612721565b9392505050565b60008115159050919050565b61276e81612759565b811461277957600080fd5b50565b60008151905061278b81612765565b92915050565b6000602082840312156127a7576127a66121b7565b5b60006127b58482850161277c565b91505092915050565b6127c781612759565b82525050565b60006040820190506127e26000830185612362565b6127ef60208301846127be565b9392505050565b600061280182612290565b915061280c83612290565b9250828203905067ffffffffffffffff81111561282c5761282b612512565b5b92915050565b600061283d82612290565b915061284883612290565b9250828201905067ffffffffffffffff81111561286857612867612512565b5b92915050565b7f4e487b7100000000000000000000000000000000000000000000000000000000600052601260045260246000fd5b60006128a88261221a565b91506128b38361221a565b9250826128c3576128c261286e565b5b828204905092915050565b7f4e487b7100000000000000000000000000000000000000000000000000000000600052600160045260246000fd5b600060608201905061291260008301866123cc565b61291f60208301856123cc565b61292c6040830184612362565b949350505050565b600061293f826123f6565b915061294a836123f6565b9250828202612958816123f6565b9150828204841483151761296f5761296e612512565b5b5092915050565b6000612981826123f6565b915061298c836123f6565b92508261299c5761299b61286e565b5b828204905092915050565b60006129c26129bd6129b8846123f6565b6126f5565b61221a565b9050919050565b6129d2816129a7565b82525050565b60006020820190506129ed60008301846129c9565b92915050565b600082825260208201905092915050565b7f4f776e61626c653a206e6577206f776e657220697320746865207a65726f206160008201527f6464726573730000000000000000000000000000000000000000000000000000602082015250565b6000612a606026836129f3565b9150612a6b82612a04565b604082019050919050565b60006020820190508181036000830152612a8f81612a53565b9050919050565b7f4f776e61626c653a2063616c6c6572206973206e6f7420746865206f776e6572600082015250565b6000612acc6020836129f3565b9150612ad782612a96565b602082019050919050565b60006020820190508181036000830152612afb81612abf565b9050919050565b6000604082019050612b176000830185612362565b612b2460208301846122a4565b939250505056fea2646970667358221220d7292ac5dabb4974ed1fe231363f89eb9e66365ff29c252e84d8b0d2b6ab440a64736f6c63430008120033",
  "linkReferences": {},
  "deployedLinkReferences": {}
}